{
  "contractName": "TuurntCrowdsale",
  "abi": [
    {
      "constant": true,
      "inputs": [],
      "name": "startCrowdsaleDate",
      "outputs": [
        {
          "name": "",
          "type": "uint256"
        }
      ],
      "payable": false,
      "stateMutability": "view",
      "type": "function"
    },
    {
      "constant": true,
      "inputs": [],
      "name": "MAX_INVESTMENT",
      "outputs": [
        {
          "name": "",
          "type": "uint256"
        }
      ],
      "payable": false,
      "stateMutability": "view",
      "type": "function"
    },
    {
      "constant": true,
      "inputs": [],
      "name": "MIN_INVESTMENT",
      "outputs": [
        {
          "name": "",
          "type": "uint256"
        }
      ],
      "payable": false,
      "stateMutability": "view",
      "type": "function"
    },
    {
      "constant": true,
      "inputs": [],
      "name": "endPresaleDate",
      "outputs": [
        {
          "name": "",
          "type": "uint256"
        }
      ],
      "payable": false,
      "stateMutability": "view",
      "type": "function"
    },
    {
      "constant": true,
      "inputs": [],
      "name": "soldToken",
      "outputs": [
        {
          "name": "",
          "type": "uint256"
        }
      ],
      "payable": false,
      "stateMutability": "view",
      "type": "function"
    },
    {
      "constant": true,
      "inputs": [],
      "name": "owner",
      "outputs": [
        {
          "name": "",
          "type": "address"
        }
      ],
      "payable": false,
      "stateMutability": "view",
      "type": "function"
    },
    {
      "constant": true,
      "inputs": [],
      "name": "tokenAddress",
      "outputs": [
        {
          "name": "",
          "type": "address"
        }
      ],
      "payable": false,
      "stateMutability": "view",
      "type": "function"
    },
    {
      "constant": true,
      "inputs": [],
      "name": "amount",
      "outputs": [
        {
          "name": "",
          "type": "uint256"
        }
      ],
      "payable": false,
      "stateMutability": "view",
      "type": "function"
    },
    {
      "constant": true,
      "inputs": [],
      "name": "endCrowdsaleDate",
      "outputs": [
        {
          "name": "",
          "type": "uint256"
        }
      ],
      "payable": false,
      "stateMutability": "view",
      "type": "function"
    },
    {
      "constant": true,
      "inputs": [],
      "name": "ethRate",
      "outputs": [
        {
          "name": "",
          "type": "uint256"
        }
      ],
      "payable": false,
      "stateMutability": "view",
      "type": "function"
    },
    {
      "constant": true,
      "inputs": [],
      "name": "beneficiaryAddress",
      "outputs": [
        {
          "name": "",
          "type": "address"
        }
      ],
      "payable": false,
      "stateMutability": "view",
      "type": "function"
    },
    {
      "constant": true,
      "inputs": [],
      "name": "startPresaleDate",
      "outputs": [
        {
          "name": "",
          "type": "uint256"
        }
      ],
      "payable": false,
      "stateMutability": "view",
      "type": "function"
    },
    {
      "constant": false,
      "inputs": [
        {
          "name": "newOwner",
          "type": "address"
        }
      ],
      "name": "transferOwnership",
      "outputs": [],
      "payable": false,
      "stateMutability": "nonpayable",
      "type": "function"
    },
    {
      "constant": true,
      "inputs": [],
      "name": "token",
      "outputs": [
        {
          "name": "",
          "type": "address"
        }
      ],
      "payable": false,
      "stateMutability": "view",
      "type": "function"
    },
    {
      "constant": true,
      "inputs": [],
      "name": "ethRaised",
      "outputs": [
        {
          "name": "",
          "type": "uint256"
        }
      ],
      "payable": false,
      "stateMutability": "view",
      "type": "function"
    },
    {
      "inputs": [
        {
          "name": "_beneficiaryAddress",
          "type": "address"
        }
      ],
      "payable": false,
      "stateMutability": "nonpayable",
      "type": "constructor"
    },
    {
      "payable": true,
      "stateMutability": "payable",
      "type": "fallback"
    },
    {
      "anonymous": false,
      "inputs": [
        {
          "indexed": true,
          "name": "_investor",
          "type": "address"
        },
        {
          "indexed": false,
          "name": "_token",
          "type": "uint256"
        },
        {
          "indexed": false,
          "name": "_timestamp",
          "type": "uint256"
        }
      ],
      "name": "TokenBought",
      "type": "event"
    },
    {
      "anonymous": false,
      "inputs": [
        {
          "indexed": false,
          "name": "_token",
          "type": "address"
        },
        {
          "indexed": false,
          "name": "_timestamp",
          "type": "uint256"
        }
      ],
      "name": "LogTokenSet",
      "type": "event"
    },
    {
      "anonymous": false,
      "inputs": [
        {
          "indexed": true,
          "name": "previousOwner",
          "type": "address"
        },
        {
          "indexed": true,
          "name": "newOwner",
          "type": "address"
        }
      ],
      "name": "OwnershipTransferred",
      "type": "event"
    },
    {
      "constant": false,
      "inputs": [
        {
          "name": "_tokenAddress",
          "type": "address"
        }
      ],
      "name": "setTokenAddress",
      "outputs": [
        {
          "name": "",
          "type": "bool"
        }
      ],
      "payable": false,
      "stateMutability": "nonpayable",
      "type": "function"
    },
    {
      "constant": false,
      "inputs": [
        {
          "name": "_newMinInvestment",
          "type": "uint256"
        }
      ],
      "name": "changeMinInvestment",
      "outputs": [],
      "payable": false,
      "stateMutability": "nonpayable",
      "type": "function"
    },
    {
      "constant": false,
      "inputs": [
        {
          "name": "_newMaxInvestment",
          "type": "uint256"
        }
      ],
      "name": "changeMaxInvestment",
      "outputs": [],
      "payable": false,
      "stateMutability": "nonpayable",
      "type": "function"
    },
    {
      "constant": true,
      "inputs": [],
      "name": "getState",
      "outputs": [
        {
          "name": "",
          "type": "uint8"
        }
      ],
      "payable": false,
      "stateMutability": "view",
      "type": "function"
    },
    {
      "constant": true,
      "inputs": [],
      "name": "getRate",
      "outputs": [
        {
          "name": "",
          "type": "uint256"
        }
      ],
      "payable": false,
      "stateMutability": "view",
      "type": "function"
    },
    {
      "constant": true,
      "inputs": [
        {
          "name": "_investedAmount",
          "type": "uint256"
        }
      ],
      "name": "getTokenAmount",
      "outputs": [
        {
          "name": "",
          "type": "uint256"
        }
      ],
      "payable": false,
      "stateMutability": "view",
      "type": "function"
    },
    {
      "constant": false,
      "inputs": [
        {
          "name": "_investorAddress",
          "type": "address"
        }
      ],
      "name": "buyTokens",
      "outputs": [
        {
          "name": "",
          "type": "bool"
        }
      ],
      "payable": true,
      "stateMutability": "payable",
      "type": "function"
    },
    {
      "constant": false,
      "inputs": [
        {
          "name": "companyAddress",
          "type": "address"
        }
      ],
      "name": "endCrowdfund",
      "outputs": [
        {
          "name": "",
          "type": "bool"
        }
      ],
      "payable": false,
      "stateMutability": "nonpayable",
      "type": "function"
    }
  ],
  "bytecode": "0x60606040526702c68af0bb140000600255678ac7230489e800006003556201511c6005556000600a55341561003357600080fd5b604051602080610ac58339810160405280805160008054600160a060020a03191633600160a060020a039081169190911790915590925082161515905061007957600080fd5b600c8054600160a060020a031916600160a060020a03929092169190911790554260088190556202a30081016009819055600655623a020001600755610a01806100c46000396000f3006060604052600436106101195763ffffffff60e060020a60003504166311eada15811461012557806313f56f731461014a5780631865c57d1461016257806326a4e8d2146101995780634c76361e146101cc5780634ef8ff33146101df578063547173da146101f25780635e28bc83146102055780636769d1f91461021b578063679aefce1461022e5780638da5cb5b146102415780639d76ea5814610270578063aa8c217c14610283578063b2d0a33814610296578063c2507ac1146102a9578063d2d93f90146102bf578063d9c4870e146102d2578063e08a5f9e146102e5578063e75afb65146102f8578063ec8ac4d814610317578063f2fde38b1461032b578063fc0c546a1461034a578063fddf0fc01461035d575b61012233610370565b50005b341561013057600080fd5b6101386104e7565b60405190815260200160405180910390f35b341561015557600080fd5b6101606004356104ed565b005b341561016d57600080fd5b61017561050d565b6040518082600281111561018557fe5b60ff16815260200191505060405180910390f35b34156101a457600080fd5b6101b8600160a060020a0360043516610558565b604051901515815260200160405180910390f35b34156101d757600080fd5b610138610610565b34156101ea57600080fd5b610138610616565b34156101fd57600080fd5b61013861061c565b341561021057600080fd5b610160600435610622565b341561022657600080fd5b610138610642565b341561023957600080fd5b610138610648565b341561024c57600080fd5b6102546106dc565b604051600160a060020a03909116815260200160405180910390f35b341561027b57600080fd5b6102546106eb565b341561028e57600080fd5b6101386106fa565b34156102a157600080fd5b610138610700565b34156102b457600080fd5b610138600435610706565b34156102ca57600080fd5b610138610742565b34156102dd57600080fd5b610254610748565b34156102f057600080fd5b610138610757565b341561030357600080fd5b6101b8600160a060020a036004351661075d565b6101b8600160a060020a0360043516610370565b341561033657600080fd5b610160600160a060020a036004351661088b565b341561035557600080fd5b610254610926565b341561036857600080fd5b610138610935565b6000600160a060020a038216151561038757600080fd5b600d54600160a060020a0316151561039e57600080fd5b60025434101580156103b257506003543411155b15156103bd57600080fd5b6103c634610706565b600b556103d23461093b565b15156103dd57600080fd5b600154600b54600160a060020a039091169063a9059cbb90849060006040516020015260405160e060020a63ffffffff8516028152600160a060020a0390921660048301526024820152604401602060405180830381600087803b151561044357600080fd5b6102c65a03f1151561045457600080fd5b50505060405180519050151561046957600080fd5b60045461047c903463ffffffff61097916565b600455600b54600a546104949163ffffffff61097916565b600a55600b54600160a060020a038316907f28cab0d660ed8aedd61a8c9db00b97f6a2d67e07d87795994f440b18bc5f1aa3904260405191825260208201526040908101905180910390a2506001919050565b60065481565b60005433600160a060020a0390811691161461050857600080fd5b600255565b6000600854421015801561052357506009544211155b1561053057506000610555565b600654421015801561054457506007544211155b1561055157506001610555565b5060025b90565b6000805433600160a060020a0390811691161461057457600080fd5b600d54600160a060020a03161561058a57600080fd5b60018054600160a060020a0380851673ffffffffffffffffffffffffffffffffffffffff19928316811793849055600d8054909316179091557fa2051a7b23ad3a524167c26d902a3eced04ed14edaae04816b914f1c48301874911642604051600160a060020a03909216825260208201526040908101905180910390a1506001919050565b60035481565b60025481565b60095481565b60005433600160a060020a0390811691161461063d57600080fd5b600355565b600a5481565b60008061065361050d565b600281111561065e57fe5b141561066c57506006610555565b600161067661050d565b600281111561068157fe5b141561055557600654621275000142101580156106a057506007544211155b156106ad5750600a610555565b60065462093a800142106106c357506008610555565b60065442106106d457506007610555565b506000610555565b600054600160a060020a031681565b600d54600160a060020a031681565b600b5481565b60075481565b6000806000610713610648565b915061073a61072d8360055461099390919063ffffffff16565b859063ffffffff6109aa16565b949350505050565b60055481565b600c54600160a060020a031681565b60085481565b60008054819033600160a060020a0390811691161461077b57600080fd5b600754421161078957600080fd5b600154600160a060020a03166370a082313060006040516020015260405160e060020a63ffffffff8416028152600160a060020a039091166004820152602401602060405180830381600087803b15156107e257600080fd5b6102c65a03f115156107f357600080fd5b5050506040518051600154909250600160a060020a0316905063a9059cbb848360006040516020015260405160e060020a63ffffffff8516028152600160a060020a0390921660048301526024820152604401602060405180830381600087803b151561085f57600080fd5b6102c65a03f1151561087057600080fd5b50505060405180519050151561088557600080fd5b50919050565b60005433600160a060020a039081169116146108a657600080fd5b600160a060020a03811615156108bb57600080fd5b600054600160a060020a0380831691167f8be0079c531659141344cd1fd0a4f28419497f9722a3daafe3b4186f6b6457e060405160405180910390a36000805473ffffffffffffffffffffffffffffffffffffffff1916600160a060020a0392909216919091179055565b600154600160a060020a031681565b60045481565b600c54600090600160a060020a031682156108fc0283604051600060405180830381858888f19350505050151561097157600080fd5b506001919050565b60008282018381101561098857fe5b8091505b5092915050565b60008082848115156109a157fe5b04949350505050565b6000808315156109bd576000915061098c565b508282028284828115156109cd57fe5b041461098857fe00a165627a7a723058206d168dde15a2bb3e5dbade0a1d1cfdd7d315d4873a6bbccfb769e757fcb726230029",
  "source": "pragma solidity ^0.4.18;\n\n/**\n* @title TuurntCrowdsale\n* @dev The Crowdsale contract holds the token for the public sale of token and \n* contains the function to buy token.  \n*/\n\nimport 'zeppelin-solidity/contracts/math/Math.sol';\nimport 'zeppelin-solidity/contracts/ownership/Ownable.sol';\nimport './TuurntToken.sol';\n\n\ncontract TuurntCrowdsale is Ownable {\n\n    using SafeMath for uint256;\n\n    TuurntToken public token;\n\n    //variable declaration\n    uint256 public MIN_INVESTMENT = 0.2 ether;\n    uint256 public MAX_INVESTMENT = 10 ether;\n    uint256 public ethRaised;\n    uint256 public ethRate = 86300;\n    uint256 public startCrowdsaleDate;\n    uint256 public endCrowdsaleDate;\n    uint256 public startPresaleDate;\n    uint256 public endPresaleDate;\n    uint256 public soldToken = 0;\n    uint256 public amount;\n\n    //addresses\n    address public beneficiaryAddress;\n    address public tokenAddress;\n\n    event TokenBought(address indexed _investor, uint256 _token, uint256 _timestamp);\n    event LogTokenSet(address _token, uint256 _timestamp);\n    enum State {PreSale, CrowdSale, Finish}\n\n    /**\n    * @dev Transfer the ether to the beneficiaryAddress.\n    * @param _fund The ether that is transferred to contract to buy tokens.  \n    */\n    function fundTransfer(uint256 _fund) internal returns(bool) {\n        beneficiaryAddress.transfer(_fund);\n        return true;\n    }\n\n    /**\n    * @dev fallback function which accepts the ether and call the buy token function.\n    */\n    function () payable public {\n        buyTokens(msg.sender);\n    }\n\n    /**\n    * @dev TuurntCrowdsale constructor sets the original beneficiaryAddress and \n    * set the timeslot for the Pre-ICO and ICO.\n    * @param _beneficiaryAddress The address to transfer the ether that is raised during crowdsale. \n    */\n    function TuurntCrowdsale(address _beneficiaryAddress) public {\n        require(_beneficiaryAddress != address(0));\n        beneficiaryAddress = _beneficiaryAddress;\n        startPresaleDate = now;\n        endPresaleDate = now + 2 days;\n        startCrowdsaleDate = endPresaleDate; \n        endCrowdsaleDate = startCrowdsaleDate + 6 weeks;\n    }\n\n    /**\n    * @dev Allow founder to set the token contract address.\n    * @param _tokenAddress The address of token contract.\n    */\n    function setTokenAddress(address _tokenAddress) onlyOwner public returns(bool) {\n        require(tokenAddress == address(0));\n        token = TuurntToken(_tokenAddress);\n        tokenAddress = _tokenAddress;\n        LogTokenSet(token, now);\n        return true;\n    }\n\n    /**\n    * @dev Allow founder to change the minimum investment of ether.\n    * @param _newMinInvestment The value of new minimum ether investment. \n    */\n    function changeMinInvestment(uint256 _newMinInvestment) onlyOwner public {\n        MIN_INVESTMENT = _newMinInvestment;\n    }\n\n    /**\n    * @dev Allow founder to change the maximum investment of ether.\n    * @param _newMaxInvestment The value of new maximum ether investment. \n    */\n    function changeMaxInvestment(uint256 _newMaxInvestment) onlyOwner public {\n        MAX_INVESTMENT = _newMaxInvestment;\n    }\n\n    /**\n    * @dev Return the state based on the timestamp. \n    */\n    function getState() view public returns(State) {\n\n        if (now >= startPresaleDate && now <= endPresaleDate) {\n            return State.PreSale;\n        } \n        if (now >= startCrowdsaleDate && now <= endCrowdsaleDate) {\n            return State.CrowdSale;\n        } else {\n            return State.Finish;\n        }\n\n    }\n\n    /**\n    * @dev Return the rate based on the state and timestamp.\n    */\n    function getRate() view public returns(uint256) { \n        if (getState() == State.PreSale) {\n            return 6;\n        }\n        if (getState() == State.CrowdSale) {\n            if (now >= startCrowdsaleDate + 2 weeks && now <= endCrowdsaleDate) {\n                return 10;\n            }\n            if (now >= startCrowdsaleDate + 1 weeks) {\n                return 8;\n            }\n            if (now >= startCrowdsaleDate) {\n                return 7;\n            }\n            return 0;\n        }\n    } \n\n    /**\n    * @dev Calculate the number of tokens to be transferred to the investor address \n    * based on the invested ethers.\n    * @param _investedAmount The value of ether that is invested.  \n    */\n    function getTokenAmount(uint256 _investedAmount) view public returns(uint256) {\n        uint256 tokenRate = getRate();\n        uint256 tokenAmount;\n        tokenAmount = _investedAmount.mul((ethRate.div(tokenRate)));\n        return tokenAmount;\n    }\n\n    /**\n    * @dev Transfer the tokens to the investor address.\n    * @param _investorAddress The address of investor. \n    */\n    function buyTokens(address _investorAddress) \n    public \n    payable\n    returns(bool)\n    {\n        require(_investorAddress != address(0));\n        require(tokenAddress != address(0));\n        require(msg.value >= MIN_INVESTMENT && msg.value <= MAX_INVESTMENT);\n        amount = getTokenAmount(msg.value);\n        require(fundTransfer(msg.value));\n        require(token.transfer(_investorAddress, amount));\n        ethRaised = ethRaised.add(msg.value);\n        soldToken = soldToken.add(amount);\n        TokenBought(_investorAddress,amount,now);\n        return true;\n    }\n\n    /**\n    * @dev Allow founder to end the crowsale and transfer the remaining\n    * tokens of crowdfund to the company address. \n    */\n    function endCrowdfund(address companyAddress) onlyOwner public returns(bool) {\n        require(now > endCrowdsaleDate);\n        uint256 remaining = token.balanceOf(this);\n        require(token.transfer(companyAddress, remaining));\n    }\n\n}",
  "sourcePath": "/home/vikas/Office/Tuurnt/contracts/TuurntCrowdsale.sol",
  "compiler": {
    "name": "solc",
    "version": "0.4.19+commit.c4cbbb05.Emscripten.clang"
  },
  "schemaVersion": "2.0.0",
  "updatedAt": "2018-03-11T04:48:46.527Z"
}