{
  "contractName": "TuurntCrowdsale",
  "abi": [
    {
      "constant": true,
      "inputs": [],
      "name": "startCrowdsaleDate",
      "outputs": [
        {
          "name": "",
          "type": "uint256"
        }
      ],
      "payable": false,
      "stateMutability": "view",
      "type": "function"
    },
    {
      "constant": true,
      "inputs": [],
      "name": "founderAddress",
      "outputs": [
        {
          "name": "",
          "type": "address"
        }
      ],
      "payable": false,
      "stateMutability": "view",
      "type": "function"
    },
    {
      "constant": true,
      "inputs": [],
      "name": "MAX_INVESTMENT",
      "outputs": [
        {
          "name": "",
          "type": "uint256"
        }
      ],
      "payable": false,
      "stateMutability": "view",
      "type": "function"
    },
    {
      "constant": true,
      "inputs": [],
      "name": "MIN_INVESTMENT",
      "outputs": [
        {
          "name": "",
          "type": "uint256"
        }
      ],
      "payable": false,
      "stateMutability": "view",
      "type": "function"
    },
    {
      "constant": true,
      "inputs": [],
      "name": "endPresaleDate",
      "outputs": [
        {
          "name": "",
          "type": "uint256"
        }
      ],
      "payable": false,
      "stateMutability": "view",
      "type": "function"
    },
    {
      "constant": true,
      "inputs": [],
      "name": "soldToken",
      "outputs": [
        {
          "name": "",
          "type": "uint256"
        }
      ],
      "payable": false,
      "stateMutability": "view",
      "type": "function"
    },
    {
      "constant": true,
      "inputs": [],
      "name": "tokenAddress",
      "outputs": [
        {
          "name": "",
          "type": "address"
        }
      ],
      "payable": false,
      "stateMutability": "view",
      "type": "function"
    },
    {
      "constant": true,
      "inputs": [],
      "name": "isTokenSet",
      "outputs": [
        {
          "name": "",
          "type": "bool"
        }
      ],
      "payable": false,
      "stateMutability": "view",
      "type": "function"
    },
    {
      "constant": true,
      "inputs": [],
      "name": "endCrowdsaleDate",
      "outputs": [
        {
          "name": "",
          "type": "uint256"
        }
      ],
      "payable": false,
      "stateMutability": "view",
      "type": "function"
    },
    {
      "constant": true,
      "inputs": [],
      "name": "ethRate",
      "outputs": [
        {
          "name": "",
          "type": "uint256"
        }
      ],
      "payable": false,
      "stateMutability": "view",
      "type": "function"
    },
    {
      "constant": true,
      "inputs": [],
      "name": "beneficiaryAddress",
      "outputs": [
        {
          "name": "",
          "type": "address"
        }
      ],
      "payable": false,
      "stateMutability": "view",
      "type": "function"
    },
    {
      "constant": true,
      "inputs": [],
      "name": "startPresaleDate",
      "outputs": [
        {
          "name": "",
          "type": "uint256"
        }
      ],
      "payable": false,
      "stateMutability": "view",
      "type": "function"
    },
    {
      "constant": true,
      "inputs": [],
      "name": "token",
      "outputs": [
        {
          "name": "",
          "type": "address"
        }
      ],
      "payable": false,
      "stateMutability": "view",
      "type": "function"
    },
    {
      "constant": true,
      "inputs": [],
      "name": "ethRaised",
      "outputs": [
        {
          "name": "",
          "type": "uint256"
        }
      ],
      "payable": false,
      "stateMutability": "view",
      "type": "function"
    },
    {
      "inputs": [
        {
          "name": "_founderAddress",
          "type": "address"
        },
        {
          "name": "_beneficiaryAddress",
          "type": "address"
        }
      ],
      "payable": false,
      "stateMutability": "nonpayable",
      "type": "constructor"
    },
    {
      "payable": true,
      "stateMutability": "payable",
      "type": "fallback"
    },
    {
      "anonymous": false,
      "inputs": [
        {
          "indexed": true,
          "name": "_investor",
          "type": "address"
        },
        {
          "indexed": false,
          "name": "_token",
          "type": "uint256"
        }
      ],
      "name": "TokenBought",
      "type": "event"
    },
    {
      "constant": false,
      "inputs": [
        {
          "name": "_tokenAddress",
          "type": "address"
        }
      ],
      "name": "setTokenAddress",
      "outputs": [
        {
          "name": "",
          "type": "bool"
        }
      ],
      "payable": false,
      "stateMutability": "nonpayable",
      "type": "function"
    },
    {
      "constant": false,
      "inputs": [
        {
          "name": "_newMinInvestement",
          "type": "uint256"
        }
      ],
      "name": "changeMinInvestment",
      "outputs": [],
      "payable": false,
      "stateMutability": "nonpayable",
      "type": "function"
    },
    {
      "constant": false,
      "inputs": [
        {
          "name": "_newMaxInvestement",
          "type": "uint256"
        }
      ],
      "name": "changeMaxInvestment",
      "outputs": [],
      "payable": false,
      "stateMutability": "nonpayable",
      "type": "function"
    },
    {
      "constant": true,
      "inputs": [],
      "name": "getState",
      "outputs": [
        {
          "name": "",
          "type": "uint8"
        }
      ],
      "payable": false,
      "stateMutability": "view",
      "type": "function"
    },
    {
      "constant": true,
      "inputs": [],
      "name": "getRate",
      "outputs": [
        {
          "name": "",
          "type": "uint256"
        }
      ],
      "payable": false,
      "stateMutability": "view",
      "type": "function"
    },
    {
      "constant": true,
      "inputs": [
        {
          "name": "_investedAmount",
          "type": "uint256"
        }
      ],
      "name": "getTokenAmount",
      "outputs": [
        {
          "name": "",
          "type": "uint256"
        }
      ],
      "payable": false,
      "stateMutability": "view",
      "type": "function"
    },
    {
      "constant": false,
      "inputs": [
        {
          "name": "_investorAddress",
          "type": "address"
        }
      ],
      "name": "buyTokens",
      "outputs": [
        {
          "name": "",
          "type": "bool"
        }
      ],
      "payable": true,
      "stateMutability": "payable",
      "type": "function"
    },
    {
      "constant": false,
      "inputs": [],
      "name": "endCrowdfund",
      "outputs": [
        {
          "name": "",
          "type": "bool"
        }
      ],
      "payable": false,
      "stateMutability": "nonpayable",
      "type": "function"
    }
  ],
  "bytecode": "0x60606040526702c68af0bb140000600155678ac7230489e800006002556201511c6004556000600955600a805460ff19169055341561003d57600080fd5b6040516040806109138339810160405280805191906020018051600a805461010060a860020a031916610100600160a060020a0396871602179055600b8054600160a060020a031916919094161790925550504260078190556202a30081016008819055600555623a020001600655610858806100bb6000396000f30060606040526004361061010e5763ffffffff60e060020a60003504166311eada15811461011a57806313f56f731461013f5780631865c57d1461015757806326a4e8d21461018e57806328b2105c146101c157806346bb2833146101d45780634c76361e146102035780634ef8ff3314610216578063547173da146102295780635e28bc831461023c5780636769d1f914610252578063679aefce146102655780639d76ea58146102785780639ee7138c1461028b578063b2d0a3381461029e578063c2507ac1146102b1578063d2d93f90146102c7578063d9c4870e146102da578063e08a5f9e146102ed578063ec8ac4d814610300578063fc0c546a14610314578063fddf0fc014610327575b6101173361033a565b50005b341561012557600080fd5b61012d61049e565b60405190815260200160405180910390f35b341561014a57600080fd5b6101556004356104a4565b005b341561016257600080fd5b61016a6104c9565b6040518082600281111561017a57fe5b60ff16815260200191505060405180910390f35b341561019957600080fd5b6101ad600160a060020a0360043516610514565b604051901515815260200160405180910390f35b34156101cc57600080fd5b6101ad610589565b34156101df57600080fd5b6101e7610629565b604051600160a060020a03909116815260200160405180910390f35b341561020e57600080fd5b61012d61063d565b341561022157600080fd5b61012d610643565b341561023457600080fd5b61012d610649565b341561024757600080fd5b61015560043561064f565b341561025d57600080fd5b61012d610674565b341561027057600080fd5b61012d61067a565b341561028357600080fd5b6101e7610713565b341561029657600080fd5b6101ad610722565b34156102a957600080fd5b61012d61072b565b34156102bc57600080fd5b61012d600435610731565b34156102d257600080fd5b61012d61076d565b34156102e557600080fd5b6101e7610773565b34156102f857600080fd5b61012d610782565b6101ad600160a060020a036004351661033a565b341561031f57600080fd5b6101e7610788565b341561033257600080fd5b61012d610797565b600080600160a060020a038316151561035257600080fd5b600a5460ff16151560011461036657600080fd5b600154341015801561037a57506002543411155b151561038557600080fd5b61038e34610731565b90506103993461079d565b15156103a457600080fd5b60008054600160a060020a03169063a9059cbb90859084906040516020015260405160e060020a63ffffffff8516028152600160a060020a0390921660048301526024820152604401602060405180830381600087803b151561040657600080fd5b6102c65a03f1151561041757600080fd5b50505060405180519050151561042c57600080fd5b60035461043f903463ffffffff6107db16565b600355600954610455908263ffffffff6107db16565b600955600160a060020a0383167fa3a187cfc249a33f6c4046e8d418886eea8564f9dd214a32aa5ba08d9602b5438260405190815260200160405180910390a250600192915050565b60055481565b600a5433600160a060020a0390811661010090920416146104c457600080fd5b600155565b600060075442101580156104df57506008544211155b156104ec57506000610511565b600554421015801561050057506006544211155b1561050d57506001610511565b5060025b90565b600a5460009060ff161561052757600080fd5b600160a060020a038216151561053c57600080fd5b60008054600160a060020a0390931673ffffffffffffffffffffffffffffffffffffffff199384168117909155600c805490931617909155600a805460ff19811660ff9091161517905590565b600a5460009033600160a060020a0390811661010090920416146105ac57600080fd5b60065442116105ba57600080fd5b60008054600160a060020a03169063d8567a0990604051602001526040518163ffffffff1660e060020a028152600401602060405180830381600087803b151561060357600080fd5b6102c65a03f1151561061457600080fd5b50505060405180519050151561051157600080fd5b600a546101009004600160a060020a031681565b60025481565b60015481565b60085481565b600a5433600160a060020a03908116610100909204161461066f57600080fd5b600255565b60095481565b6000806106856104c9565b600281111561069057fe5b141561069e57506006610511565b60016106a86104c9565b60028111156106b357fe5b141561051157600554621baf800142101580156106d257506006544211155b156106df5750600a610511565b600554621275000142106106f557506008610511565b60055462093a8001421061070b57506007610511565b506000610511565b600c54600160a060020a031681565b600a5460ff1681565b60065481565b600080600061073e61067a565b9150610765610758836004546107f190919063ffffffff16565b859063ffffffff61080816565b949350505050565b60045481565b600b54600160a060020a031681565b60075481565b600054600160a060020a031681565b60035481565b600b54600090600160a060020a031682156108fc0283604051600060405180830381858888f1935050505015156107d357600080fd5b506001919050565b6000828201838110156107ea57fe5b9392505050565b60008082848115156107ff57fe5b04949350505050565b6000828202831580610824575082848281151561082157fe5b04145b15156107ea57fe00a165627a7a7230582010020957878f6a42ef17facec5f4d9eaf400044c0dce39b713b79ee4be8261d40029",
  "source": " pragma solidity ^0.4.18;\n\nimport './lib/SafeMath.sol';\nimport './TuurntToken.sol';\n\ncontract TuurntCrowdsale {\n\n    using SafeMath for uint256;\n\n    TuurntToken public token;\n    uint256 public MIN_INVESTMENT = 0.2 ether;\n    uint256 public MAX_INVESTMENT = 10 ether;\n    uint256 public ethRaised;\n    uint256 public ethRate = 86300;\n    uint256 public startCrowdsaleDate;\n    uint256 public endCrowdsaleDate;\n    uint256 public startPresaleDate;\n    uint256 public endPresaleDate;\n    uint256 public soldToken = 0;\n\n    bool public isTokenSet = false;\n\n    address public founderAddress;\n    address public beneficiaryAddress;\n    address public tokenAddress;\n\n    event TokenBought(address indexed _investor, uint256 _token);\n\n    enum State {PreSale, CrowdSale, Finish}\n\n    modifier onlyFounder() {\n        require(founderAddress == msg.sender);\n        _;\n    } \n\n    function fundTransfer(uint256 _fund) internal returns(bool) {\n        beneficiaryAddress.transfer(_fund);\n        return true;\n    }\n\n    function () payable public {\n        buyTokens(msg.sender);\n    }\n\n    function TuurntCrowdsale(address _founderAddress, address _beneficiaryAddress) public {\n        founderAddress = _founderAddress;\n        beneficiaryAddress = _beneficiaryAddress;\n        startPresaleDate = now;\n        endPresaleDate = now + 2 days;\n        startCrowdsaleDate = endPresaleDate; \n        endCrowdsaleDate = startCrowdsaleDate + 6 weeks;\n    }\n\n    function setTokenAddress(address _tokenAddress) public returns(bool) {\n        require(isTokenSet == false);\n        require(_tokenAddress != address(0));\n        token = TuurntToken(_tokenAddress);\n        tokenAddress = _tokenAddress;\n        isTokenSet = !isTokenSet;\n    }\n\n    function changeMinInvestment(uint256 _newMinInvestement) onlyFounder public {\n        MIN_INVESTMENT = _newMinInvestement;\n    }\n\n    function changeMaxInvestment(uint256 _newMaxInvestement) onlyFounder public {\n        MAX_INVESTMENT = _newMaxInvestement;\n    }\n\n    function getState() view public returns(State) {\n\n        if (now >= startPresaleDate && now <= endPresaleDate) {\n            return State.PreSale;\n        } \n        if (now >= startCrowdsaleDate && now <= endCrowdsaleDate) {\n            return State.CrowdSale;\n        } else {\n            return State.Finish;\n        }\n\n    }\n\n    function getRate() view public returns(uint256) { \n        if (getState() == State.PreSale) {\n            return 6;\n        }\n        if (getState() == State.CrowdSale) {\n            if (now >= startCrowdsaleDate + 3 weeks && now <= endCrowdsaleDate) {\n                return 10;\n            }\n            if (now >= startCrowdsaleDate + 2 weeks) {\n                return 8;\n            }\n            if (now >= startCrowdsaleDate + 1 weeks) {\n                return 7;\n            }\n            return 0;\n        }\n    } \n\n    function getTokenAmount(uint256 _investedAmount) view public returns(uint256) {\n        uint256 tokenRate = getRate();\n        uint256 tokenAmount;\n        tokenAmount = _investedAmount.mul((ethRate.div(tokenRate)));\n        return tokenAmount;\n    }\n\n    function buyTokens(address _investorAddress) \n    public \n    payable\n    returns(bool)\n    {\n        require(_investorAddress != address(0));\n        require(isTokenSet == true);\n        require(msg.value >= MIN_INVESTMENT && msg.value <= MAX_INVESTMENT);\n        uint256 amount;\n        amount = getTokenAmount(msg.value);\n        require(fundTransfer(msg.value));\n        require(token.transfer(_investorAddress,amount));\n        ethRaised = ethRaised.add(msg.value);\n        soldToken = soldToken.add(amount);\n        TokenBought(_investorAddress,amount);\n        return true;\n    }\n\n    function endCrowdfund() onlyFounder public returns(bool) {\n        require(now > endCrowdsaleDate);\n        require(token.transferRemainingToCompany());\n    }\n\n}",
  "sourcePath": "/home/vikas/Office/Tuurnt/contracts/TuurntCrowdsale.sol",
  "compiler": {
    "name": "solc",
    "version": "0.4.19+commit.c4cbbb05.Emscripten.clang"
  },
  "schemaVersion": "2.0.0",
  "updatedAt": "2018-03-06T10:57:40.432Z"
}