{
  "contractName": "TuurntCrowdsale",
  "abi": [
    {
      "constant": true,
      "inputs": [],
      "name": "startCrowdsaleDate",
      "outputs": [
        {
          "name": "",
          "type": "uint256"
        }
      ],
      "payable": false,
      "stateMutability": "view",
      "type": "function"
    },
    {
      "constant": true,
      "inputs": [],
      "name": "founderAddress",
      "outputs": [
        {
          "name": "",
          "type": "address"
        }
      ],
      "payable": false,
      "stateMutability": "view",
      "type": "function"
    },
    {
      "constant": true,
      "inputs": [],
      "name": "MAX_INVESTMENT",
      "outputs": [
        {
          "name": "",
          "type": "uint256"
        }
      ],
      "payable": false,
      "stateMutability": "view",
      "type": "function"
    },
    {
      "constant": true,
      "inputs": [],
      "name": "MIN_INVESTMENT",
      "outputs": [
        {
          "name": "",
          "type": "uint256"
        }
      ],
      "payable": false,
      "stateMutability": "view",
      "type": "function"
    },
    {
      "constant": true,
      "inputs": [],
      "name": "endPresaleDate",
      "outputs": [
        {
          "name": "",
          "type": "uint256"
        }
      ],
      "payable": false,
      "stateMutability": "view",
      "type": "function"
    },
    {
      "constant": true,
      "inputs": [],
      "name": "soldToken",
      "outputs": [
        {
          "name": "",
          "type": "uint256"
        }
      ],
      "payable": false,
      "stateMutability": "view",
      "type": "function"
    },
    {
      "constant": true,
      "inputs": [],
      "name": "tokenAddress",
      "outputs": [
        {
          "name": "",
          "type": "address"
        }
      ],
      "payable": false,
      "stateMutability": "view",
      "type": "function"
    },
    {
      "constant": true,
      "inputs": [],
      "name": "isTokenSet",
      "outputs": [
        {
          "name": "",
          "type": "bool"
        }
      ],
      "payable": false,
      "stateMutability": "view",
      "type": "function"
    },
    {
      "constant": true,
      "inputs": [],
      "name": "amount",
      "outputs": [
        {
          "name": "",
          "type": "uint256"
        }
      ],
      "payable": false,
      "stateMutability": "view",
      "type": "function"
    },
    {
      "constant": true,
      "inputs": [],
      "name": "endCrowdsaleDate",
      "outputs": [
        {
          "name": "",
          "type": "uint256"
        }
      ],
      "payable": false,
      "stateMutability": "view",
      "type": "function"
    },
    {
      "constant": true,
      "inputs": [],
      "name": "ethRate",
      "outputs": [
        {
          "name": "",
          "type": "uint256"
        }
      ],
      "payable": false,
      "stateMutability": "view",
      "type": "function"
    },
    {
      "constant": true,
      "inputs": [],
      "name": "beneficiaryAddress",
      "outputs": [
        {
          "name": "",
          "type": "address"
        }
      ],
      "payable": false,
      "stateMutability": "view",
      "type": "function"
    },
    {
      "constant": true,
      "inputs": [],
      "name": "startPresaleDate",
      "outputs": [
        {
          "name": "",
          "type": "uint256"
        }
      ],
      "payable": false,
      "stateMutability": "view",
      "type": "function"
    },
    {
      "constant": true,
      "inputs": [],
      "name": "token",
      "outputs": [
        {
          "name": "",
          "type": "address"
        }
      ],
      "payable": false,
      "stateMutability": "view",
      "type": "function"
    },
    {
      "constant": true,
      "inputs": [],
      "name": "ethRaised",
      "outputs": [
        {
          "name": "",
          "type": "uint256"
        }
      ],
      "payable": false,
      "stateMutability": "view",
      "type": "function"
    },
    {
      "inputs": [
        {
          "name": "_founderAddress",
          "type": "address"
        },
        {
          "name": "_beneficiaryAddress",
          "type": "address"
        }
      ],
      "payable": false,
      "stateMutability": "nonpayable",
      "type": "constructor"
    },
    {
      "payable": true,
      "stateMutability": "payable",
      "type": "fallback"
    },
    {
      "anonymous": false,
      "inputs": [
        {
          "indexed": true,
          "name": "_investor",
          "type": "address"
        },
        {
          "indexed": false,
          "name": "_token",
          "type": "uint256"
        }
      ],
      "name": "TokenBought",
      "type": "event"
    },
    {
      "anonymous": false,
      "inputs": [
        {
          "indexed": false,
          "name": "_token",
          "type": "address"
        },
        {
          "indexed": false,
          "name": "_timestamp",
          "type": "uint256"
        }
      ],
      "name": "LogTokenSet",
      "type": "event"
    },
    {
      "constant": false,
      "inputs": [
        {
          "name": "_tokenAddress",
          "type": "address"
        }
      ],
      "name": "setTokenAddress",
      "outputs": [
        {
          "name": "",
          "type": "bool"
        }
      ],
      "payable": false,
      "stateMutability": "nonpayable",
      "type": "function"
    },
    {
      "constant": false,
      "inputs": [
        {
          "name": "_newMinInvestement",
          "type": "uint256"
        }
      ],
      "name": "changeMinInvestment",
      "outputs": [],
      "payable": false,
      "stateMutability": "nonpayable",
      "type": "function"
    },
    {
      "constant": false,
      "inputs": [
        {
          "name": "_newMaxInvestement",
          "type": "uint256"
        }
      ],
      "name": "changeMaxInvestment",
      "outputs": [],
      "payable": false,
      "stateMutability": "nonpayable",
      "type": "function"
    },
    {
      "constant": true,
      "inputs": [],
      "name": "getState",
      "outputs": [
        {
          "name": "",
          "type": "uint8"
        }
      ],
      "payable": false,
      "stateMutability": "view",
      "type": "function"
    },
    {
      "constant": true,
      "inputs": [],
      "name": "getRate",
      "outputs": [
        {
          "name": "",
          "type": "uint256"
        }
      ],
      "payable": false,
      "stateMutability": "view",
      "type": "function"
    },
    {
      "constant": true,
      "inputs": [
        {
          "name": "_investedAmount",
          "type": "uint256"
        }
      ],
      "name": "getTokenAmount",
      "outputs": [
        {
          "name": "",
          "type": "uint256"
        }
      ],
      "payable": false,
      "stateMutability": "view",
      "type": "function"
    },
    {
      "constant": false,
      "inputs": [
        {
          "name": "_investorAddress",
          "type": "address"
        }
      ],
      "name": "buyTokens",
      "outputs": [
        {
          "name": "",
          "type": "bool"
        }
      ],
      "payable": true,
      "stateMutability": "payable",
      "type": "function"
    },
    {
      "constant": false,
      "inputs": [],
      "name": "endCrowdfund",
      "outputs": [
        {
          "name": "",
          "type": "bool"
        }
      ],
      "payable": false,
      "stateMutability": "nonpayable",
      "type": "function"
    }
  ],
  "bytecode": "0x60606040526702c68af0bb140000600155678ac7230489e800006002556201511c6004556000600955600b805460ff19169055341561003d57600080fd5b6040516040806109a58339810160405280805191906020018051600b805461010060a860020a031916610100600160a060020a0396871602179055600c8054600160a060020a031916919094161790925550504260078190556202a30081016008819055600555623a0200016006556108ea806100bb6000396000f3006060604052600436106101195763ffffffff60e060020a60003504166311eada15811461012557806313f56f731461014a5780631865c57d1461016257806326a4e8d21461019957806328b2105c146101cc57806346bb2833146101df5780634c76361e1461020e5780634ef8ff3314610221578063547173da146102345780635e28bc83146102475780636769d1f91461025d578063679aefce146102705780639d76ea58146102835780639ee7138c14610296578063aa8c217c146102a9578063b2d0a338146102bc578063c2507ac1146102cf578063d2d93f90146102e5578063d9c4870e146102f8578063e08a5f9e1461030b578063ec8ac4d81461031e578063fc0c546a14610332578063fddf0fc014610345575b61012233610358565b50005b341561013057600080fd5b6101386104c4565b60405190815260200160405180910390f35b341561015557600080fd5b6101606004356104ca565b005b341561016d57600080fd5b6101756104ef565b6040518082600281111561018557fe5b60ff16815260200191505060405180910390f35b34156101a457600080fd5b6101b8600160a060020a036004351661053a565b604051901515815260200160405180910390f35b34156101d757600080fd5b6101b861061a565b34156101ea57600080fd5b6101f26106ba565b604051600160a060020a03909116815260200160405180910390f35b341561021957600080fd5b6101386106ce565b341561022c57600080fd5b6101386106d4565b341561023f57600080fd5b6101386106da565b341561025257600080fd5b6101606004356106e0565b341561026857600080fd5b610138610705565b341561027b57600080fd5b61013861070b565b341561028e57600080fd5b6101f261079f565b34156102a157600080fd5b6101b86107ae565b34156102b457600080fd5b6101386107b7565b34156102c757600080fd5b6101386107bd565b34156102da57600080fd5b6101386004356107c3565b34156102f057600080fd5b6101386107ff565b341561030357600080fd5b6101f2610805565b341561031657600080fd5b610138610814565b6101b8600160a060020a0360043516610358565b341561033d57600080fd5b6101f261081a565b341561035057600080fd5b610138610829565b6000600160a060020a038216151561036f57600080fd5b600b5460ff16151560011461038357600080fd5b600154341015801561039757506002543411155b15156103a257600080fd5b6103ab346107c3565b600a556103b73461082f565b15156103c257600080fd5b60008054600a54600160a060020a039091169163a9059cbb9185916040516020015260405160e060020a63ffffffff8516028152600160a060020a0390921660048301526024820152604401602060405180830381600087803b151561042757600080fd5b6102c65a03f1151561043857600080fd5b50505060405180519050151561044d57600080fd5b600354610460903463ffffffff61086d16565b600355600a546009546104789163ffffffff61086d16565b600955600a54600160a060020a038316907fa3a187cfc249a33f6c4046e8d418886eea8564f9dd214a32aa5ba08d9602b5439060405190815260200160405180910390a2506001919050565b60055481565b600b5433600160a060020a0390811661010090920416146104ea57600080fd5b600155565b6000600754421015801561050557506008544211155b1561051257506000610537565b600554421015801561052657506006544211155b1561053357506001610537565b5060025b90565b600b5460009033600160a060020a03908116610100909204161461055d57600080fd5b600b5460ff161561056d57600080fd5b600160a060020a038216151561058257600080fd5b60008054600160a060020a0380851673ffffffffffffffffffffffffffffffffffffffff19928316811793849055600d805490931617909155600b805460ff19811660ff909116151790557fa2051a7b23ad3a524167c26d902a3eced04ed14edaae04816b914f1c48301874911642604051600160a060020a03909216825260208201526040908101905180910390a1506001919050565b600b5460009033600160a060020a03908116610100909204161461063d57600080fd5b600654421161064b57600080fd5b60008054600160a060020a03169063d8567a0990604051602001526040518163ffffffff1660e060020a028152600401602060405180830381600087803b151561069457600080fd5b6102c65a03f115156106a557600080fd5b50505060405180519050151561053757600080fd5b600b546101009004600160a060020a031681565b60025481565b60015481565b60085481565b600b5433600160a060020a03908116610100909204161461070057600080fd5b600255565b60095481565b6000806107166104ef565b600281111561072157fe5b141561072f57506006610537565b60016107396104ef565b600281111561074457fe5b1415610537576005546212750001421015801561076357506006544211155b156107705750600a610537565b60055462093a8001421061078657506008610537565b600554421061079757506007610537565b506000610537565b600d54600160a060020a031681565b600b5460ff1681565b600a5481565b60065481565b60008060006107d061070b565b91506107f76107ea8360045461088390919063ffffffff16565b859063ffffffff61089a16565b949350505050565b60045481565b600c54600160a060020a031681565b60075481565b600054600160a060020a031681565b60035481565b600c54600090600160a060020a031682156108fc0283604051600060405180830381858888f19350505050151561086557600080fd5b506001919050565b60008282018381101561087c57fe5b9392505050565b600080828481151561089157fe5b04949350505050565b60008282028315806108b657508284828115156108b357fe5b04145b151561087c57fe00a165627a7a72305820cd5877f7fe8bd56918bf93b26027238d4036899566b02729ca8a35c9c1d0e64f0029",
  "source": " pragma solidity ^0.4.18;\n\nimport './lib/SafeMath.sol';\nimport './TuurntToken.sol';\n\ncontract TuurntCrowdsale {\n\n    using SafeMath for uint256;\n\n    TuurntToken public token;\n    uint256 public MIN_INVESTMENT = 0.2 ether;\n    uint256 public MAX_INVESTMENT = 10 ether;\n    uint256 public ethRaised;\n    uint256 public ethRate = 86300;\n    uint256 public startCrowdsaleDate;\n    uint256 public endCrowdsaleDate;\n    uint256 public startPresaleDate;\n    uint256 public endPresaleDate;\n    uint256 public soldToken = 0;\n    uint256 public amount;\n\n    bool public isTokenSet = false;\n\n    address public founderAddress;\n    address public beneficiaryAddress;\n    address public tokenAddress;\n\n    event TokenBought(address indexed _investor, uint256 _token);\n    event LogTokenSet(address _token, uint256 _timestamp);\n    enum State {PreSale, CrowdSale, Finish}\n\n    modifier onlyFounder() {\n        require(founderAddress == msg.sender);\n        _;\n    } \n\n    function fundTransfer(uint256 _fund) internal returns(bool) {\n        beneficiaryAddress.transfer(_fund);\n        return true;\n    }\n\n    function () payable public {\n        buyTokens(msg.sender);\n    }\n\n    function TuurntCrowdsale(address _founderAddress, address _beneficiaryAddress) public {\n        founderAddress = _founderAddress;\n        beneficiaryAddress = _beneficiaryAddress;\n        startPresaleDate = now;\n        endPresaleDate = now + 2 days;\n        startCrowdsaleDate = endPresaleDate; \n        endCrowdsaleDate = startCrowdsaleDate + 6 weeks;\n    }\n\n    function setTokenAddress(address _tokenAddress) onlyFounder public returns(bool) {\n        require(isTokenSet == false);\n        require(_tokenAddress != address(0));\n        token = TuurntToken(_tokenAddress);\n        tokenAddress = _tokenAddress;\n        isTokenSet = !isTokenSet;\n        LogTokenSet(token, now);\n        return true;\n    }\n\n    function changeMinInvestment(uint256 _newMinInvestement) onlyFounder public {\n        MIN_INVESTMENT = _newMinInvestement;\n    }\n\n    function changeMaxInvestment(uint256 _newMaxInvestement) onlyFounder public {\n        MAX_INVESTMENT = _newMaxInvestement;\n    }\n\n    function getState() view public returns(State) {\n\n        if (now >= startPresaleDate && now <= endPresaleDate) {\n            return State.PreSale;\n        } \n        if (now >= startCrowdsaleDate && now <= endCrowdsaleDate) {\n            return State.CrowdSale;\n        } else {\n            return State.Finish;\n        }\n\n    }\n\n    function getRate() view public returns(uint256) { \n        if (getState() == State.PreSale) {\n            return 6;\n        }\n        if (getState() == State.CrowdSale) {\n            if (now >= startCrowdsaleDate + 2 weeks && now <= endCrowdsaleDate) {\n                return 10;\n            }\n            if (now >= startCrowdsaleDate + 1 weeks) {\n                return 8;\n            }\n            if (now >= startCrowdsaleDate) {\n                return 7;\n            }\n            return 0;\n        }\n    } \n\n    function getTokenAmount(uint256 _investedAmount) view public returns(uint256) {\n        uint256 tokenRate = getRate();\n        uint256 tokenAmount;\n        tokenAmount = _investedAmount.mul((ethRate.div(tokenRate)));\n        return tokenAmount;\n    }\n\n    function buyTokens(address _investorAddress) \n    public \n    payable\n    returns(bool)\n    {\n        require(_investorAddress != address(0));\n        require(isTokenSet == true);\n        require(msg.value >= MIN_INVESTMENT && msg.value <= MAX_INVESTMENT);\n        amount = getTokenAmount(msg.value);\n        require(fundTransfer(msg.value));\n        require(token.transfer(_investorAddress, amount));\n        ethRaised = ethRaised.add(msg.value);\n        soldToken = soldToken.add(amount);\n        TokenBought(_investorAddress,amount);\n        return true;\n    }\n\n    function endCrowdfund() onlyFounder public returns(bool) {\n        require(now > endCrowdsaleDate);\n        require(token.transferRemainingToCompany());\n    }\n\n}",
  "sourcePath": "/home/vikas/Office/Tuurnt/contracts/TuurntCrowdsale.sol",
  "compiler": {
    "name": "solc",
    "version": "0.4.19+commit.c4cbbb05.Emscripten.clang"
  },
  "schemaVersion": "2.0.0",
  "updatedAt": "2018-03-09T08:32:15.670Z"
}