{
  "contractName": "TuurntToken",
  "abi": [
    {
      "constant": true,
      "inputs": [],
      "name": "allocatedTokens",
      "outputs": [
        {
          "name": "",
          "type": "uint256"
        }
      ],
      "payable": false,
      "stateMutability": "view",
      "type": "function"
    },
    {
      "constant": true,
      "inputs": [],
      "name": "name",
      "outputs": [
        {
          "name": "",
          "type": "string"
        }
      ],
      "payable": false,
      "stateMutability": "view",
      "type": "function"
    },
    {
      "constant": false,
      "inputs": [
        {
          "name": "_spender",
          "type": "address"
        },
        {
          "name": "_value",
          "type": "uint256"
        }
      ],
      "name": "approve",
      "outputs": [
        {
          "name": "",
          "type": "bool"
        }
      ],
      "payable": false,
      "stateMutability": "nonpayable",
      "type": "function"
    },
    {
      "constant": true,
      "inputs": [],
      "name": "totalSupply",
      "outputs": [
        {
          "name": "",
          "type": "uint256"
        }
      ],
      "payable": false,
      "stateMutability": "view",
      "type": "function"
    },
    {
      "constant": false,
      "inputs": [
        {
          "name": "_from",
          "type": "address"
        },
        {
          "name": "_to",
          "type": "address"
        },
        {
          "name": "_value",
          "type": "uint256"
        }
      ],
      "name": "transferFrom",
      "outputs": [
        {
          "name": "",
          "type": "bool"
        }
      ],
      "payable": false,
      "stateMutability": "nonpayable",
      "type": "function"
    },
    {
      "constant": true,
      "inputs": [],
      "name": "decimals",
      "outputs": [
        {
          "name": "",
          "type": "uint16"
        }
      ],
      "payable": false,
      "stateMutability": "view",
      "type": "function"
    },
    {
      "constant": true,
      "inputs": [],
      "name": "crowdsaleAddress",
      "outputs": [
        {
          "name": "",
          "type": "address"
        }
      ],
      "payable": false,
      "stateMutability": "view",
      "type": "function"
    },
    {
      "constant": true,
      "inputs": [],
      "name": "companyAddress",
      "outputs": [
        {
          "name": "",
          "type": "address"
        }
      ],
      "payable": false,
      "stateMutability": "view",
      "type": "function"
    },
    {
      "constant": true,
      "inputs": [],
      "name": "tokenAllocToCrowdsale",
      "outputs": [
        {
          "name": "",
          "type": "uint256"
        }
      ],
      "payable": false,
      "stateMutability": "view",
      "type": "function"
    },
    {
      "constant": true,
      "inputs": [
        {
          "name": "_owner",
          "type": "address"
        }
      ],
      "name": "balanceOf",
      "outputs": [
        {
          "name": "balance",
          "type": "uint256"
        }
      ],
      "payable": false,
      "stateMutability": "view",
      "type": "function"
    },
    {
      "constant": true,
      "inputs": [],
      "name": "owner",
      "outputs": [
        {
          "name": "",
          "type": "address"
        }
      ],
      "payable": false,
      "stateMutability": "view",
      "type": "function"
    },
    {
      "constant": true,
      "inputs": [],
      "name": "symbol",
      "outputs": [
        {
          "name": "",
          "type": "string"
        }
      ],
      "payable": false,
      "stateMutability": "view",
      "type": "function"
    },
    {
      "constant": true,
      "inputs": [],
      "name": "vestingContractAddress",
      "outputs": [
        {
          "name": "",
          "type": "address"
        }
      ],
      "payable": false,
      "stateMutability": "view",
      "type": "function"
    },
    {
      "constant": true,
      "inputs": [],
      "name": "tokenAllocToCompany",
      "outputs": [
        {
          "name": "",
          "type": "uint256"
        }
      ],
      "payable": false,
      "stateMutability": "view",
      "type": "function"
    },
    {
      "constant": true,
      "inputs": [],
      "name": "tokenAllocToTeam",
      "outputs": [
        {
          "name": "",
          "type": "uint256"
        }
      ],
      "payable": false,
      "stateMutability": "view",
      "type": "function"
    },
    {
      "constant": false,
      "inputs": [
        {
          "name": "_to",
          "type": "address"
        },
        {
          "name": "_value",
          "type": "uint256"
        }
      ],
      "name": "transfer",
      "outputs": [
        {
          "name": "",
          "type": "bool"
        }
      ],
      "payable": false,
      "stateMutability": "nonpayable",
      "type": "function"
    },
    {
      "constant": true,
      "inputs": [],
      "name": "remainingTokens",
      "outputs": [
        {
          "name": "",
          "type": "uint256"
        }
      ],
      "payable": false,
      "stateMutability": "view",
      "type": "function"
    },
    {
      "constant": true,
      "inputs": [
        {
          "name": "_owner",
          "type": "address"
        },
        {
          "name": "_spender",
          "type": "address"
        }
      ],
      "name": "allowance",
      "outputs": [
        {
          "name": "",
          "type": "uint256"
        }
      ],
      "payable": false,
      "stateMutability": "view",
      "type": "function"
    },
    {
      "inputs": [
        {
          "name": "_crowdsaleAddress",
          "type": "address"
        },
        {
          "name": "_vestingContract",
          "type": "address"
        },
        {
          "name": "_companyAddress",
          "type": "address"
        }
      ],
      "payable": false,
      "stateMutability": "nonpayable",
      "type": "constructor"
    },
    {
      "anonymous": false,
      "inputs": [
        {
          "indexed": true,
          "name": "owner",
          "type": "address"
        },
        {
          "indexed": true,
          "name": "spender",
          "type": "address"
        },
        {
          "indexed": false,
          "name": "value",
          "type": "uint256"
        }
      ],
      "name": "Approval",
      "type": "event"
    },
    {
      "anonymous": false,
      "inputs": [
        {
          "indexed": true,
          "name": "from",
          "type": "address"
        },
        {
          "indexed": true,
          "name": "to",
          "type": "address"
        },
        {
          "indexed": false,
          "name": "value",
          "type": "uint256"
        }
      ],
      "name": "Transfer",
      "type": "event"
    },
    {
      "constant": false,
      "inputs": [],
      "name": "transferRemainingToCompany",
      "outputs": [
        {
          "name": "",
          "type": "bool"
        }
      ],
      "payable": false,
      "stateMutability": "nonpayable",
      "type": "function"
    }
  ],
  "bytecode": "0x606060405260408051908101604052600c81527f547575726e7420546f6b656e0000000000000000000000000000000000000000602082015260039080516200004d929160200190620002fb565b5060408051908101604052600381527f54525400000000000000000000000000000000000000000000000000000000006020820152600490805162000097929160200190620002fb565b506005805461ffff191660121790556b019d971e4fe8401e740000006006553415620000c257600080fd5b60405160608062000d9c8339810160405280805191906020018051919060200180516006549092506200012391506064906200010e90602164010000000062000965620002b582021704565b9064010000000062000989620002e382021704565b6007556006546200014c906064906200010e90602164010000000062000965620002b582021704565b60095560065462000175906064906200010e90602264010000000062000965620002b582021704565b6008818155600c8054600160a060020a03338116600160a060020a031992831617909255600d805488841690831617808255600e8054898616908516178155600f805489871695169490941784559084166000908152602081905260408082209790975560095493548516815286812093909355600754905484168352858320555492549290911692909160008051602062000d7c833981519152915190815260200160405180910390a3600f54600954600160a060020a039091169060009060008051602062000d7c8339815191529060405190815260200160405180910390a3600e54600754600160a060020a039091169060009060008051602062000d7c8339815191529060405190815260200160405180910390a35050600f54600160a060020a0316600090815260208190526040902054600a5550620003a0565b6000828202831580620002d35750828482811515620002d057fe5b04145b1515620002dc57fe5b9392505050565b6000808284811515620002f257fe5b04949350505050565b828054600181600116156101000203166002900490600052602060002090601f016020900481019282601f106200033e57805160ff19168380011785556200036e565b828001600101855582156200036e579182015b828111156200036e57825182559160200191906001019062000351565b506200037c92915062000380565b5090565b6200039d91905b808211156200037c576000815560010162000387565b90565b6109cc80620003b06000396000f3006060604052600436106101055763ffffffff7c01000000000000000000000000000000000000000000000000000000006000350416622f9569811461010a57806306fdde031461012f578063095ea7b3146101b957806318160ddd146101ef57806323b872dd14610202578063313ce5671461022a57806331d2f8911461025457806353e1ead9146102835780636a10ad641461029657806370a08231146102a95780638da5cb5b146102c857806395d89b41146102db5780639e7bf05f146102ee578063a33c097214610301578063a4c756c714610314578063a9059cbb14610327578063bf58390314610349578063d8567a091461035c578063dd62ed3e1461036f575b600080fd5b341561011557600080fd5b61011d610394565b60405190815260200160405180910390f35b341561013a57600080fd5b61014261039a565b60405160208082528190810183818151815260200191508051906020019080838360005b8381101561017e578082015183820152602001610166565b50505050905090810190601f1680156101ab5780820380516001836020036101000a031916815260200191505b509250505060405180910390f35b34156101c457600080fd5b6101db600160a060020a0360043516602435610438565b604051901515815260200160405180910390f35b34156101fa57600080fd5b61011d6104a4565b341561020d57600080fd5b6101db600160a060020a03600435811690602435166044356104aa565b341561023557600080fd5b61023d61062a565b60405161ffff909116815260200160405180910390f35b341561025f57600080fd5b610267610634565b604051600160a060020a03909116815260200160405180910390f35b341561028e57600080fd5b610267610643565b34156102a157600080fd5b61011d610652565b34156102b457600080fd5b61011d600160a060020a0360043516610658565b34156102d357600080fd5b610267610673565b34156102e657600080fd5b610142610682565b34156102f957600080fd5b6102676106ed565b341561030c57600080fd5b61011d6106fc565b341561031f57600080fd5b61011d610702565b341561033257600080fd5b6101db600160a060020a0360043516602435610708565b341561035457600080fd5b61011d61081a565b341561036757600080fd5b6101db610820565b341561037a57600080fd5b61011d600160a060020a0360043581169060243516610912565b600a5481565b60038054600181600116156101000203166002900480601f0160208091040260200160405190810160405280929190818152602001828054600181600116156101000203166002900480156104305780601f1061040557610100808354040283529160200191610430565b820191906000526020600020905b81548152906001019060200180831161041357829003601f168201915b505050505081565b600160a060020a03338116600081815260026020908152604080832094871680845294909152808220859055909291907f8c5be1e5ebec7d5bd14f71427d1e84f3dd0314c0f7b2291e5b200ac8c7c3b9259085905190815260200160405180910390a350600192915050565b60065481565b6000600160a060020a03831615156104c157600080fd5b600160a060020a0384166000908152602081905260409020548211156104e657600080fd5b600160a060020a038085166000908152600260209081526040808320339094168352929052205482111561051957600080fd5b600160a060020a038416600090815260208190526040902054610542908363ffffffff61093d16565b600160a060020a038086166000908152602081905260408082209390935590851681522054610577908363ffffffff61094f16565b600160a060020a03808516600090815260208181526040808320949094558783168252600281528382203390931682529190915220546105bd908363ffffffff61093d16565b600160a060020a03808616600081815260026020908152604080832033861684529091529081902093909355908516917fddf252ad1be2c89b69c2b068fc378daa952ba7f163c4a11628f55a4df523b3ef9085905190815260200160405180910390a35060019392505050565b60055461ffff1681565b600d54600160a060020a031681565b600f54600160a060020a031681565b60085481565b600160a060020a031660009081526020819052604090205490565b600c54600160a060020a031681565b60048054600181600116156101000203166002900480601f0160208091040260200160405190810160405280929190818152602001828054600181600116156101000203166002900480156104305780601f1061040557610100808354040283529160200191610430565b600e54600160a060020a031681565b60095481565b60075481565b6000600160a060020a038316151561071f57600080fd5b600160a060020a03331660009081526020819052604090205482111561074457600080fd5b600160a060020a03331660009081526020819052604090205461076d908363ffffffff61093d16565b600160a060020a0333811660009081526020819052604080822093909355908516815220546107a2908363ffffffff61094f16565b60008085600160a060020a0316600160a060020a031681526020019081526020016000208190555082600160a060020a031633600160a060020a03167fddf252ad1be2c89b69c2b068fc378daa952ba7f163c4a11628f55a4df523b3ef8460405190815260200160405180910390a350600192915050565b600b5481565b600d5460009033600160a060020a0390811691161461083e57600080fd5b600d54600160a060020a0316600090815260208190526040902054600b8190556006546108709163ffffffff61093d16565b600655600d54600160a060020a03908116600090815260208190526040808220829055600b54600f5490931682529020546108b09163ffffffff61094f16565b600f8054600160a060020a03908116600090815260208190526040808220949094559154600b549116927fddf252ad1be2c89b69c2b068fc378daa952ba7f163c4a11628f55a4df523b3ef91905190815260200160405180910390a350600190565b600160a060020a03918216600090815260026020908152604080832093909416825291909152205490565b60008282111561094957fe5b50900390565b60008282018381101561095e57fe5b9392505050565b6000828202831580610981575082848281151561097e57fe5b04145b151561095e57fe5b600080828481151561099757fe5b049493505050505600a165627a7a7230582058635826426c18725e3142beae4eea84959ebe485f5ef05fbe6ac1134ea1e1800029ddf252ad1be2c89b69c2b068fc378daa952ba7f163c4a11628f55a4df523b3ef",
  "source": "pragma solidity ^0.4.18;\n\nimport './helpers/StandardToken.sol';\nimport './lib/SafeMath.sol';\n\ncontract TuurntToken is StandardToken {\n\n    using SafeMath for uint256;\n\n    // token Variable declaration\n    string public name = \"Tuurnt Token\";\n    string public symbol = \"TRT\";\n    uint16 public decimals = 18;\n    uint256 public totalSupply = 500000000 * 10 ** 18;\n\n    // distribution variables\n    uint256 public tokenAllocToTeam;\n    uint256 public tokenAllocToCrowdsale;\n    uint256 public tokenAllocToCompany;\n    uint256 public allocatedTokens;\n    uint256 public remainingTokens;\n\n    // addresses\n    address public owner;\n    address public crowdsaleAddress;\n    address public vestingContractAddress;\n    address public companyAddress;\n   \n\n    \n\n    function TuurntToken(address _crowdsaleAddress, address _vestingContract, address _companyAddress) public {\n        tokenAllocToTeam = (totalSupply.mul(33)).div(100);     // 33 % Allocation\n        tokenAllocToCompany = (totalSupply.mul(33)).div(100);  // 33 % Allocation \n        tokenAllocToCrowdsale = (totalSupply.mul(34)).div(100);// 34 % Allocation\n\n        // Address \n        owner = msg.sender;        \n        crowdsaleAddress = _crowdsaleAddress;\n        vestingContractAddress = _vestingContract;\n        companyAddress = _companyAddress;\n        // founderAddress = _founderAddress;\n\n\n        // Allocations\n        balances[crowdsaleAddress] = tokenAllocToCrowdsale;\n        balances[companyAddress] = tokenAllocToCompany;\n        balances[vestingContractAddress] = tokenAllocToTeam; \n\n        //Add transfer event\n        Transfer(address(0),crowdsaleAddress,tokenAllocToCrowdsale);\n        Transfer(address(0),companyAddress,tokenAllocToCompany);\n        Transfer(address(0),vestingContractAddress,tokenAllocToTeam);\n        allocatedTokens = balances[companyAddress];\n    }  \n\n    function transferRemainingToCompany() public returns(bool) {\n        require(msg.sender == crowdsaleAddress);\n        remainingTokens = balances[crowdsaleAddress];\n        totalSupply = totalSupply.sub(remainingTokens);\n        balances[crowdsaleAddress] = 0;\n        \n        //Add transfer event\n       balances[companyAddress] = balances[companyAddress].add(remainingTokens); \n       Transfer(address(0),companyAddress,remainingTokens);\n       return true;\n    }\n\n\n\n}",
  "sourcePath": "/home/vikas/Office/Tuurnt/contracts/TuurntToken.sol",
  "compiler": {
    "name": "solc",
    "version": "0.4.19+commit.c4cbbb05.Emscripten.clang"
  },
  "schemaVersion": "2.0.0",
  "updatedAt": "2018-03-09T08:32:15.666Z"
}