{
  "contractName": "TuurntToken",
  "abi": [
    {
      "constant": true,
      "inputs": [],
      "name": "name",
      "outputs": [
        {
          "name": "",
          "type": "string"
        }
      ],
      "payable": false,
      "stateMutability": "view",
      "type": "function"
    },
    {
      "constant": false,
      "inputs": [
        {
          "name": "_spender",
          "type": "address"
        },
        {
          "name": "_value",
          "type": "uint256"
        }
      ],
      "name": "approve",
      "outputs": [
        {
          "name": "",
          "type": "bool"
        }
      ],
      "payable": false,
      "stateMutability": "nonpayable",
      "type": "function"
    },
    {
      "constant": true,
      "inputs": [],
      "name": "totalSupply",
      "outputs": [
        {
          "name": "",
          "type": "uint256"
        }
      ],
      "payable": false,
      "stateMutability": "view",
      "type": "function"
    },
    {
      "constant": false,
      "inputs": [
        {
          "name": "_from",
          "type": "address"
        },
        {
          "name": "_to",
          "type": "address"
        },
        {
          "name": "_value",
          "type": "uint256"
        }
      ],
      "name": "transferFrom",
      "outputs": [
        {
          "name": "",
          "type": "bool"
        }
      ],
      "payable": false,
      "stateMutability": "nonpayable",
      "type": "function"
    },
    {
      "constant": true,
      "inputs": [],
      "name": "decimals",
      "outputs": [
        {
          "name": "",
          "type": "uint8"
        }
      ],
      "payable": false,
      "stateMutability": "view",
      "type": "function"
    },
    {
      "constant": true,
      "inputs": [],
      "name": "crowdsaleAddress",
      "outputs": [
        {
          "name": "",
          "type": "address"
        }
      ],
      "payable": false,
      "stateMutability": "view",
      "type": "function"
    },
    {
      "constant": true,
      "inputs": [],
      "name": "companyAddress",
      "outputs": [
        {
          "name": "",
          "type": "address"
        }
      ],
      "payable": false,
      "stateMutability": "view",
      "type": "function"
    },
    {
      "constant": false,
      "inputs": [
        {
          "name": "_spender",
          "type": "address"
        },
        {
          "name": "_subtractedValue",
          "type": "uint256"
        }
      ],
      "name": "decreaseApproval",
      "outputs": [
        {
          "name": "",
          "type": "bool"
        }
      ],
      "payable": false,
      "stateMutability": "nonpayable",
      "type": "function"
    },
    {
      "constant": true,
      "inputs": [],
      "name": "tokenAllocToCrowdsale",
      "outputs": [
        {
          "name": "",
          "type": "uint256"
        }
      ],
      "payable": false,
      "stateMutability": "view",
      "type": "function"
    },
    {
      "constant": true,
      "inputs": [
        {
          "name": "_owner",
          "type": "address"
        }
      ],
      "name": "balanceOf",
      "outputs": [
        {
          "name": "balance",
          "type": "uint256"
        }
      ],
      "payable": false,
      "stateMutability": "view",
      "type": "function"
    },
    {
      "constant": true,
      "inputs": [],
      "name": "owner",
      "outputs": [
        {
          "name": "",
          "type": "address"
        }
      ],
      "payable": false,
      "stateMutability": "view",
      "type": "function"
    },
    {
      "constant": true,
      "inputs": [],
      "name": "symbol",
      "outputs": [
        {
          "name": "",
          "type": "string"
        }
      ],
      "payable": false,
      "stateMutability": "view",
      "type": "function"
    },
    {
      "constant": true,
      "inputs": [],
      "name": "vestingContractAddress",
      "outputs": [
        {
          "name": "",
          "type": "address"
        }
      ],
      "payable": false,
      "stateMutability": "view",
      "type": "function"
    },
    {
      "constant": true,
      "inputs": [],
      "name": "tokenAllocToCompany",
      "outputs": [
        {
          "name": "",
          "type": "uint256"
        }
      ],
      "payable": false,
      "stateMutability": "view",
      "type": "function"
    },
    {
      "constant": true,
      "inputs": [],
      "name": "tokenAllocToTeam",
      "outputs": [
        {
          "name": "",
          "type": "uint256"
        }
      ],
      "payable": false,
      "stateMutability": "view",
      "type": "function"
    },
    {
      "constant": false,
      "inputs": [
        {
          "name": "_to",
          "type": "address"
        },
        {
          "name": "_value",
          "type": "uint256"
        }
      ],
      "name": "transfer",
      "outputs": [
        {
          "name": "",
          "type": "bool"
        }
      ],
      "payable": false,
      "stateMutability": "nonpayable",
      "type": "function"
    },
    {
      "constant": true,
      "inputs": [],
      "name": "remainingTokens",
      "outputs": [
        {
          "name": "",
          "type": "uint256"
        }
      ],
      "payable": false,
      "stateMutability": "view",
      "type": "function"
    },
    {
      "constant": false,
      "inputs": [
        {
          "name": "_spender",
          "type": "address"
        },
        {
          "name": "_addedValue",
          "type": "uint256"
        }
      ],
      "name": "increaseApproval",
      "outputs": [
        {
          "name": "",
          "type": "bool"
        }
      ],
      "payable": false,
      "stateMutability": "nonpayable",
      "type": "function"
    },
    {
      "constant": true,
      "inputs": [
        {
          "name": "_owner",
          "type": "address"
        },
        {
          "name": "_spender",
          "type": "address"
        }
      ],
      "name": "allowance",
      "outputs": [
        {
          "name": "",
          "type": "uint256"
        }
      ],
      "payable": false,
      "stateMutability": "view",
      "type": "function"
    },
    {
      "inputs": [
        {
          "name": "_crowdsaleAddress",
          "type": "address"
        },
        {
          "name": "_vestingContract",
          "type": "address"
        },
        {
          "name": "_companyAddress",
          "type": "address"
        },
        {
          "name": "_name",
          "type": "string"
        },
        {
          "name": "_symbol",
          "type": "string"
        },
        {
          "name": "_decimals",
          "type": "uint8"
        }
      ],
      "payable": false,
      "stateMutability": "nonpayable",
      "type": "constructor"
    },
    {
      "anonymous": false,
      "inputs": [
        {
          "indexed": true,
          "name": "owner",
          "type": "address"
        },
        {
          "indexed": true,
          "name": "spender",
          "type": "address"
        },
        {
          "indexed": false,
          "name": "value",
          "type": "uint256"
        }
      ],
      "name": "Approval",
      "type": "event"
    },
    {
      "anonymous": false,
      "inputs": [
        {
          "indexed": true,
          "name": "from",
          "type": "address"
        },
        {
          "indexed": true,
          "name": "to",
          "type": "address"
        },
        {
          "indexed": false,
          "name": "value",
          "type": "uint256"
        }
      ],
      "name": "Transfer",
      "type": "event"
    },
    {
      "constant": false,
      "inputs": [],
      "name": "transferRemainingToCompany",
      "outputs": [
        {
          "name": "",
          "type": "bool"
        }
      ],
      "payable": false,
      "stateMutability": "nonpayable",
      "type": "function"
    }
  ],
  "bytecode": "0x606060405234156200001057600080fd5b60405162000faf38038062000faf833981016040528080519190602001805191906020018051919060200180518201919060200180518201919060200180519150839050828260038380516200006b92916020019062000361565b5060048280516200008192916020019062000361565b506005805460ff191660ff929092169190911790555050600160a060020a0386161515620000ae57600080fd5b600160a060020a0385161515620000c457600080fd5b600160a060020a0384161515620000da57600080fd5b6b019d971e4fe8401e740000006001556040805190810160405280600c81526020017f547575726e7420546f6b656e0000000000000000000000000000000000000000815250925060408051908101604052600381527f545254000000000000000000000000000000000000000000000000000000000060208201526001549092506012915062000198906064906200018390602164010000000062000b0b6200030f82021704565b9064010000000062000b366200034982021704565b600655600154620001c1906064906200018390602164010000000062000b0b6200030f82021704565b600855600154620001ea906064906200018390602264010000000062000b0b6200030f82021704565b6007818155600a8054600160a060020a03338116600160a060020a031992831617909255600b80548b841690831617808255600c80548c8616908516178155600d80548c871695169490941784559084166000908152602081905260408082209790975560085493548516815286812093909355600654905484168352858320555492549290911692909160008051602062000f8f833981519152915190815260200160405180910390a3600d54600854600160a060020a039091169060009060008051602062000f8f8339815191529060405190815260200160405180910390a3600c54600654600160a060020a039091169060009060008051602062000f8f8339815191529060405190815260200160405180910390a350505050505062000406565b60008083151562000324576000915062000342565b508282028284828115156200033557fe5b04146200033e57fe5b8091505b5092915050565b60008082848115156200035857fe5b04949350505050565b828054600181600116156101000203166002900490600052602060002090601f016020900481019282601f10620003a457805160ff1916838001178555620003d4565b82800160010185558215620003d4579182015b82811115620003d4578251825591602001919060010190620003b7565b50620003e2929150620003e6565b5090565b6200040391905b80821115620003e25760008155600101620003ed565b90565b610b7980620004166000396000f3006060604052600436106101115763ffffffff7c010000000000000000000000000000000000000000000000000000000060003504166306fdde038114610116578063095ea7b3146101a057806318160ddd146101d657806323b872dd146101fb578063313ce5671461022357806331d2f8911461024c57806353e1ead91461027b578063661884631461028e5780636a10ad64146102b057806370a08231146102c35780638da5cb5b146102e257806395d89b41146102f55780639e7bf05f14610308578063a33c09721461031b578063a4c756c71461032e578063a9059cbb14610341578063bf58390314610363578063d73dd62314610376578063d8567a0914610398578063dd62ed3e146103ab575b600080fd5b341561012157600080fd5b6101296103d0565b60405160208082528190810183818151815260200191508051906020019080838360005b8381101561016557808201518382015260200161014d565b50505050905090810190601f1680156101925780820380516001836020036101000a031916815260200191505b509250505060405180910390f35b34156101ab57600080fd5b6101c2600160a060020a036004351660243561046e565b604051901515815260200160405180910390f35b34156101e157600080fd5b6101e96104da565b60405190815260200160405180910390f35b341561020657600080fd5b6101c2600160a060020a03600435811690602435166044356104e0565b341561022e57600080fd5b610236610660565b60405160ff909116815260200160405180910390f35b341561025757600080fd5b61025f610669565b604051600160a060020a03909116815260200160405180910390f35b341561028657600080fd5b61025f610678565b341561029957600080fd5b6101c2600160a060020a0360043516602435610687565b34156102bb57600080fd5b6101e9610783565b34156102ce57600080fd5b6101e9600160a060020a0360043516610789565b34156102ed57600080fd5b61025f6107a4565b341561030057600080fd5b6101296107b3565b341561031357600080fd5b61025f61081e565b341561032657600080fd5b6101e961082d565b341561033957600080fd5b6101e9610833565b341561034c57600080fd5b6101c2600160a060020a0360043516602435610839565b341561036e57600080fd5b6101e961094b565b341561038157600080fd5b6101c2600160a060020a0360043516602435610951565b34156103a357600080fd5b6101c26109f5565b34156103b657600080fd5b6101e9600160a060020a0360043581169060243516610ab8565b60038054600181600116156101000203166002900480601f0160208091040260200160405190810160405280929190818152602001828054600181600116156101000203166002900480156104665780601f1061043b57610100808354040283529160200191610466565b820191906000526020600020905b81548152906001019060200180831161044957829003601f168201915b505050505081565b600160a060020a03338116600081815260026020908152604080832094871680845294909152808220859055909291907f8c5be1e5ebec7d5bd14f71427d1e84f3dd0314c0f7b2291e5b200ac8c7c3b9259085905190815260200160405180910390a350600192915050565b60015490565b6000600160a060020a03831615156104f757600080fd5b600160a060020a03841660009081526020819052604090205482111561051c57600080fd5b600160a060020a038085166000908152600260209081526040808320339094168352929052205482111561054f57600080fd5b600160a060020a038416600090815260208190526040902054610578908363ffffffff610ae316565b600160a060020a0380861660009081526020819052604080822093909355908516815220546105ad908363ffffffff610af516565b600160a060020a03808516600090815260208181526040808320949094558783168252600281528382203390931682529190915220546105f3908363ffffffff610ae316565b600160a060020a03808616600081815260026020908152604080832033861684529091529081902093909355908516917fddf252ad1be2c89b69c2b068fc378daa952ba7f163c4a11628f55a4df523b3ef9085905190815260200160405180910390a35060019392505050565b60055460ff1681565b600b54600160a060020a031681565b600d54600160a060020a031681565b600160a060020a033381166000908152600260209081526040808320938616835292905290812054808311156106e457600160a060020a03338116600090815260026020908152604080832093881683529290529081205561071b565b6106f4818463ffffffff610ae316565b600160a060020a033381166000908152600260209081526040808320938916835292905220555b600160a060020a0333811660008181526002602090815260408083209489168084529490915290819020547f8c5be1e5ebec7d5bd14f71427d1e84f3dd0314c0f7b2291e5b200ac8c7c3b925915190815260200160405180910390a3600191505b5092915050565b60075481565b600160a060020a031660009081526020819052604090205490565b600a54600160a060020a031681565b60048054600181600116156101000203166002900480601f0160208091040260200160405190810160405280929190818152602001828054600181600116156101000203166002900480156104665780601f1061043b57610100808354040283529160200191610466565b600c54600160a060020a031681565b60085481565b60065481565b6000600160a060020a038316151561085057600080fd5b600160a060020a03331660009081526020819052604090205482111561087557600080fd5b600160a060020a03331660009081526020819052604090205461089e908363ffffffff610ae316565b600160a060020a0333811660009081526020819052604080822093909355908516815220546108d3908363ffffffff610af516565b60008085600160a060020a0316600160a060020a031681526020019081526020016000208190555082600160a060020a031633600160a060020a03167fddf252ad1be2c89b69c2b068fc378daa952ba7f163c4a11628f55a4df523b3ef8460405190815260200160405180910390a350600192915050565b60095481565b600160a060020a033381166000908152600260209081526040808320938616835292905290812054610989908363ffffffff610af516565b600160a060020a0333811660008181526002602090815260408083209489168084529490915290819020849055919290917f8c5be1e5ebec7d5bd14f71427d1e84f3dd0314c0f7b2291e5b200ac8c7c3b92591905190815260200160405180910390a350600192915050565b600b5460009033600160a060020a03908116911614610a1357600080fd5b600b54600160a060020a03908116600090815260208190526040808220805460099081559083905554600d549093168252902054610a569163ffffffff610af516565b600d8054600160a060020a039081166000908152602081905260408082209490945591546009549116927fddf252ad1be2c89b69c2b068fc378daa952ba7f163c4a11628f55a4df523b3ef91905190815260200160405180910390a350600190565b600160a060020a03918216600090815260026020908152604080832093909416825291909152205490565b600082821115610aef57fe5b50900390565b600082820183811015610b0457fe5b9392505050565b600080831515610b1e576000915061077c565b50828202828482811515610b2e57fe5b0414610b0457fe5b6000808284811515610b4457fe5b049493505050505600a165627a7a72305820086085fef7962bcb204b15e5ce682da654f08284f87ce140157fd84a595741ee0029ddf252ad1be2c89b69c2b068fc378daa952ba7f163c4a11628f55a4df523b3ef",
  "source": "pragma solidity ^0.4.18;\n\n/**\n* @title TuurntToken \n* @dev The TuurntToken contract contains the information about \n* Tuurnt token.\n*/\n\nimport 'zeppelin-solidity/contracts/token/ERC20/StandardToken.sol';\nimport 'zeppelin-solidity/contracts/token/ERC20/DetailedERC20.sol';\nimport 'zeppelin-solidity/contracts/math/Math.sol';\n\ncontract TuurntToken is StandardToken, DetailedERC20 {\n\n    using SafeMath for uint256;\n\n    // distribution variables\n    uint256 public tokenAllocToTeam;\n    uint256 public tokenAllocToCrowdsale;\n    uint256 public tokenAllocToCompany;\n    uint256 public remainingTokens;\n\n    // addresses\n    address public owner;\n    address public crowdsaleAddress;\n    address public vestingContractAddress;\n    address public companyAddress;\n   \n\n    /**\n    * @dev The TuurntToken constructor set the orginal crowdsaleAddress,vestingAddress and companyAddress and allocate the\n    * tokens to them.\n    * @param _crowdsaleAddress The address of crowsale contract\n    * @param _vestingContract The address of vesting contract\n    * @param _companyAddress The address of company address \n    */\n\n    function TuurntToken(address _crowdsaleAddress, address _vestingContract, address _companyAddress,string _name, string _symbol, uint8 _decimals) public \n        DetailedERC20(_name, _symbol, _decimals)\n    {\n        require(_crowdsaleAddress != address(0));\n        require(_vestingContract != address(0));\n        require(_companyAddress != address(0));\n        totalSupply_ = 500000000 * 10 ** 18;\n        _name = \"Tuurnt Token\";\n        _symbol = \"TRT\";\n        _decimals = 18; \n        tokenAllocToTeam = (totalSupply_.mul(33)).div(100);     // 33 % Allocation\n        tokenAllocToCompany = (totalSupply_.mul(33)).div(100);  // 33 % Allocation \n        tokenAllocToCrowdsale = (totalSupply_.mul(34)).div(100);// 34 % Allocation\n\n        // Address \n        owner = msg.sender;        \n        crowdsaleAddress = _crowdsaleAddress;\n        vestingContractAddress = _vestingContract;\n        companyAddress = _companyAddress;\n        \n\n\n        // Allocations\n        balances[crowdsaleAddress] = tokenAllocToCrowdsale;\n        balances[companyAddress] = tokenAllocToCompany;\n        balances[vestingContractAddress] = tokenAllocToTeam; \n\n        //transfer event\n        Transfer(address(0),crowdsaleAddress,tokenAllocToCrowdsale);\n        Transfer(address(0),companyAddress,tokenAllocToCompany);\n        Transfer(address(0),vestingContractAddress,tokenAllocToTeam);\n        \n    }  \n\n    /**\n    * @dev Transfer the remaining tokens of the crowdsale to the company address\n    */\n    function transferRemainingToCompany() public returns(bool) {\n        require(msg.sender == crowdsaleAddress);\n        remainingTokens = balances[crowdsaleAddress];\n        balances[crowdsaleAddress] = 0;\n        balances[companyAddress] = balances[companyAddress].add(remainingTokens); \n        Transfer(address(0),companyAddress,remainingTokens);\n        return true;\n    }\n\n\n\n}",
  "sourcePath": "/home/vikas/Office/Tuurnt/contracts/TuurntToken.sol",
  "compiler": {
    "name": "solc",
    "version": "0.4.19+commit.c4cbbb05.Emscripten.clang"
  },
  "schemaVersion": "2.0.0",
  "updatedAt": "2018-03-10T19:44:58.435Z"
}