{
  "contractName": "VestingStrategy",
  "abi": [
    {
      "constant": true,
      "inputs": [],
      "name": "finalSlotTimestamp",
      "outputs": [
        {
          "name": "",
          "type": "uint256"
        }
      ],
      "payable": false,
      "stateMutability": "view",
      "type": "function"
    },
    {
      "constant": true,
      "inputs": [],
      "name": "teamAddress",
      "outputs": [
        {
          "name": "",
          "type": "address"
        }
      ],
      "payable": false,
      "stateMutability": "view",
      "type": "function"
    },
    {
      "constant": true,
      "inputs": [],
      "name": "founderAddress",
      "outputs": [
        {
          "name": "",
          "type": "address"
        }
      ],
      "payable": false,
      "stateMutability": "view",
      "type": "function"
    },
    {
      "constant": true,
      "inputs": [],
      "name": "tokenReleased",
      "outputs": [
        {
          "name": "",
          "type": "uint256"
        }
      ],
      "payable": false,
      "stateMutability": "view",
      "type": "function"
    },
    {
      "constant": true,
      "inputs": [],
      "name": "slotAmount",
      "outputs": [
        {
          "name": "",
          "type": "uint256"
        }
      ],
      "payable": false,
      "stateMutability": "view",
      "type": "function"
    },
    {
      "constant": true,
      "inputs": [],
      "name": "vestingPeriod",
      "outputs": [
        {
          "name": "",
          "type": "uint256"
        }
      ],
      "payable": false,
      "stateMutability": "view",
      "type": "function"
    },
    {
      "constant": true,
      "inputs": [],
      "name": "tokenAddress",
      "outputs": [
        {
          "name": "",
          "type": "address"
        }
      ],
      "payable": false,
      "stateMutability": "view",
      "type": "function"
    },
    {
      "constant": true,
      "inputs": [],
      "name": "firstSlotTimestamp",
      "outputs": [
        {
          "name": "",
          "type": "uint256"
        }
      ],
      "payable": false,
      "stateMutability": "view",
      "type": "function"
    },
    {
      "constant": true,
      "inputs": [],
      "name": "thirdSlotTimestamp",
      "outputs": [
        {
          "name": "",
          "type": "uint256"
        }
      ],
      "payable": false,
      "stateMutability": "view",
      "type": "function"
    },
    {
      "constant": true,
      "inputs": [],
      "name": "secondSlotTimestamp",
      "outputs": [
        {
          "name": "",
          "type": "uint256"
        }
      ],
      "payable": false,
      "stateMutability": "view",
      "type": "function"
    },
    {
      "inputs": [
        {
          "name": "_teamAddress",
          "type": "address"
        }
      ],
      "payable": false,
      "stateMutability": "nonpayable",
      "type": "constructor"
    },
    {
      "anonymous": false,
      "inputs": [
        {
          "indexed": false,
          "name": "_timestamp",
          "type": "uint256"
        },
        {
          "indexed": false,
          "name": "_newFounderAddress",
          "type": "address"
        }
      ],
      "name": "OwnershipTransferred",
      "type": "event"
    },
    {
      "constant": false,
      "inputs": [
        {
          "name": "_tokenAddress",
          "type": "address"
        }
      ],
      "name": "setTokenAddress",
      "outputs": [
        {
          "name": "",
          "type": "bool"
        }
      ],
      "payable": false,
      "stateMutability": "nonpayable",
      "type": "function"
    },
    {
      "constant": false,
      "inputs": [
        {
          "name": "_newFounderAddress",
          "type": "address"
        }
      ],
      "name": "transferOwnership",
      "outputs": [
        {
          "name": "",
          "type": "bool"
        }
      ],
      "payable": false,
      "stateMutability": "nonpayable",
      "type": "function"
    },
    {
      "constant": false,
      "inputs": [],
      "name": "releaseTokenToTeam",
      "outputs": [
        {
          "name": "",
          "type": "bool"
        }
      ],
      "payable": false,
      "stateMutability": "nonpayable",
      "type": "function"
    }
  ],
  "bytecode": "0x606060405260006009556a221f06fb12854a31400000600a55600b805460ff19169055341561002d57600080fd5b604051602080610adb8339810160405280805160028054600160a060020a0319908116600160a060020a039384161790915560018054909116339092169190911790555050426301e1338081016004556303c2670081016005556305a39a808101600655630784ce00016007819055600855610a2d806100ae6000396000f3006060604052600436106100ab5763ffffffff60e060020a6000350416631115e5d381146100b05780631c75f085146100d557806326a4e8d21461010457806346bb2833146101375780634a76564e1461014a5780634ca0ad2e1461015d5780636557d577146101705780637313ee5a146101835780639d76ea5814610196578063a55cc49b146101a9578063a97760a7146101bc578063d306df33146101cf578063f2fde38b146101e2575b600080fd5b34156100bb57600080fd5b6100c3610201565b60405190815260200160405180910390f35b34156100e057600080fd5b6100e8610207565b604051600160a060020a03909116815260200160405180910390f35b341561010f57600080fd5b610123600160a060020a0360043516610216565b604051901515815260200160405180910390f35b341561014257600080fd5b6100e86102ab565b341561015557600080fd5b6100c36102ba565b341561016857600080fd5b6101236102c0565b341561017b57600080fd5b6100c3610916565b341561018e57600080fd5b6100c361091c565b34156101a157600080fd5b6100e8610922565b34156101b457600080fd5b6100c3610931565b34156101c757600080fd5b6100c3610937565b34156101da57600080fd5b6100c361093d565b34156101ed57600080fd5b610123600160a060020a0360043516610943565b60075481565b600254600160a060020a031681565b60015460009033600160a060020a0390811691161461023457600080fd5b600160a060020a038216151561024957600080fd5b600b5460ff161561025957600080fd5b5060008054600160a060020a03831673ffffffffffffffffffffffffffffffffffffffff199182168117909255600380549091169091179055600b805460ff19811660ff909116151790556001919050565b600154600160a060020a031681565b60095481565b60015460009033600160a060020a039081169116146102de57600080fd5b600b5460ff1615156001146102f257600080fd5b60075442106106185760095415156103ba5760008054600254600a54600160a060020a039283169363a9059cbb93909216916004909102906040516020015260405160e060020a63ffffffff8516028152600160a060020a0390921660048301526024820152604401602060405180830381600087803b151561037457600080fd5b6102c65a03f1151561038557600080fd5b50505060405180519050151561039a57600080fd5b600a546009546103b29160040263ffffffff6109d416565b600955610613565b600a546009546103cf9163ffffffff6109ea16565b600114156104855760008054600254600a54600160a060020a039283169363a9059cbb93909216916003909102906040516020015260405160e060020a63ffffffff8516028152600160a060020a0390921660048301526024820152604401602060405180830381600087803b151561044757600080fd5b6102c65a03f1151561045857600080fd5b50505060405180519050151561046d57600080fd5b600a546009546103b29160030263ffffffff6109d416565b600a5460095461049a9163ffffffff6109ea16565b6002141561054d576000805460028054600a54600160a060020a039384169463a9059cbb949092169202906040516020015260405160e060020a63ffffffff8516028152600160a060020a0390921660048301526024820152604401602060405180830381600087803b151561050f57600080fd5b6102c65a03f1151561052057600080fd5b50505060405180519050151561053557600080fd5b600a546009546103b29160020263ffffffff6109d416565b600a546009546105629163ffffffff6109ea16565b600314156106135760008054600254600a54600160a060020a039283169363a9059cbb93909216916040516020015260405160e060020a63ffffffff8516028152600160a060020a0390921660048301526024820152604401602060405180830381600087803b15156105d457600080fd5b6102c65a03f115156105e557600080fd5b5050506040518051905015156105fa57600080fd5b600a5460095461060f9163ffffffff6109d416565b6009555b61090f565b60065442106107ab57600954151561069a5760008054600254600a54600160a060020a039283169363a9059cbb93909216916003909102906040516020015260405160e060020a63ffffffff8516028152600160a060020a0390921660048301526024820152604401602060405180830381600087803b151561044757600080fd5b600a546009546106af9163ffffffff6109ea16565b60011415610724576000805460028054600a54600160a060020a039384169463a9059cbb949092169202906040516020015260405160e060020a63ffffffff8516028152600160a060020a0390921660048301526024820152604401602060405180830381600087803b151561050f57600080fd5b600a546009546107399163ffffffff6109ea16565b600214156106135760008054600254600a54600160a060020a039283169363a9059cbb93909216916040516020015260405160e060020a63ffffffff8516028152600160a060020a0390921660048301526024820152604401602060405180830381600087803b15156105d457600080fd5b600554421061089457600954151561082a576000805460028054600a54600160a060020a039384169463a9059cbb949092169202906040516020015260405160e060020a63ffffffff8516028152600160a060020a0390921660048301526024820152604401602060405180830381600087803b151561050f57600080fd5b60008054600254600a54600160a060020a039283169363a9059cbb93909216916040516020015260405160e060020a63ffffffff8516028152600160a060020a0390921660048301526024820152604401602060405180830381600087803b15156105d457600080fd5b60045442106109075760008054600254600a54600160a060020a039283169363a9059cbb93909216916040516020015260405160e060020a63ffffffff8516028152600160a060020a0390921660048301526024820152604401602060405180830381600087803b15156105d457600080fd5b506000610913565b5060015b90565b600a5481565b60085481565b600354600160a060020a031681565b60045481565b60065481565b60055481565b60015460009033600160a060020a0390811691161461096157600080fd5b6001805473ffffffffffffffffffffffffffffffffffffffff1916600160a060020a0384161790557fba8cc72bdfdb4f3e2281c3f17f6be90c470f76dd1106321a2928859835874bc24283604051918252600160a060020a031660208201526040908101905180910390a1506001919050565b6000828201838110156109e357fe5b9392505050565b60008082848115156109f857fe5b049493505050505600a165627a7a7230582076d7fc04529ae97aea97c7fce89ed2846abd434af7ede843468c1227cd6988640029",
  "source": " pragma solidity ^0.4.18;\n\nimport './lib/SafeMath.sol';\nimport './TuurntToken.sol';\n\ncontract VestingStrategy {\n\n    using SafeMath for uint256;\n\n    TuurntToken token;\n    // Variable declaration\n    address public founderAddress;\n    address public teamAddress;\n    address public tokenAddress;\n\n    uint256 public firstSlotTimestamp;\n    uint256 public secondSlotTimestamp;\n    uint256 public thirdSlotTimestamp;\n    uint256 public finalSlotTimestamp;\n    uint256 public vestingPeriod;\n    uint256 public tokenReleased = 0;\n    uint256 public slotAmount = 41250000 * 10 ** 18; //25% of total team token\n\n    bool private isTokenSet = false;\n\n    event OwnershipTransferred(uint256 _timestamp, address _newFounderAddress);\n\n    modifier onlyFounder(){\n        require(msg.sender == founderAddress);\n        _;\n    }\n\n    function VestingStrategy(address _teamAddress) public {\n        teamAddress = _teamAddress;\n        founderAddress = msg.sender;\n        firstSlotTimestamp = now + 1 * 365 days;\n        secondSlotTimestamp = firstSlotTimestamp + 1 * 365 days;\n        thirdSlotTimestamp = secondSlotTimestamp + 1 * 365 days;\n        finalSlotTimestamp = thirdSlotTimestamp + 1 * 365 days; \n        vestingPeriod = now + 4 * 365 days;   // 3 months for crowdsale end + 4 years of vesting\n    }\n\n    function setTokenAddress(address _tokenAddress) onlyFounder public returns (bool) {\n        require(_tokenAddress != address(0));\n        require(isTokenSet == false);\n        token = TuurntToken(_tokenAddress);\n        tokenAddress = _tokenAddress;\n        isTokenSet = !isTokenSet;\n        return true;\n    }\n\n    function transferOwnership(address _newFounderAddress) onlyFounder public returns(bool) {\n        founderAddress = _newFounderAddress;\n        OwnershipTransferred(now,_newFounderAddress);\n        return true;\n    }\n\n    function releaseTokenToTeam() onlyFounder public returns(bool) {\n        require(isTokenSet == true);\n        if (now >= finalSlotTimestamp) {\n            if (tokenReleased == 0) {\n                require(token.transfer(teamAddress, 4*slotAmount));\n                tokenReleased = tokenReleased.add(4*slotAmount);\n            } else if ((tokenReleased).div(slotAmount) == 1) {\n                require(token.transfer(teamAddress, 3*slotAmount));\n                tokenReleased = tokenReleased.add(3*slotAmount);\n            } else if ((tokenReleased).div(slotAmount) == 2) {\n                require(token.transfer(teamAddress, 2*slotAmount));\n                tokenReleased = tokenReleased.add(2*slotAmount);\n            } else if ((tokenReleased).div(slotAmount) == 3) {\n                require(token.transfer(teamAddress, slotAmount));\n                tokenReleased = tokenReleased.add(slotAmount);\n            } \n        }else if (now >= thirdSlotTimestamp) {\n            if (tokenReleased == 0) {\n                require(token.transfer(teamAddress, 3*slotAmount));\n                tokenReleased = tokenReleased.add(3*slotAmount);\n            } else if ((tokenReleased).div(slotAmount) == 1) {\n                require(token.transfer(teamAddress, 2*slotAmount));\n                tokenReleased = tokenReleased.add(2*slotAmount);\n            } else if ((tokenReleased).div(slotAmount) == 2) {\n                require(token.transfer(teamAddress, slotAmount));\n                tokenReleased = tokenReleased.add(slotAmount);\n            }                \n        }else if (now >= secondSlotTimestamp) {\n            if (tokenReleased == 0) {\n                require(token.transfer(teamAddress, 2*slotAmount));\n                tokenReleased = tokenReleased.add(2*slotAmount);\n            } else {\n                require(token.transfer(teamAddress, slotAmount));\n                tokenReleased = tokenReleased.add(slotAmount);\n            }                 \n        }else if (now >= firstSlotTimestamp) {\n            require(token.transfer(teamAddress, slotAmount));\n            tokenReleased = tokenReleased.add(slotAmount);\n        } else {\n            return false;\n        }\n        return true;\n    }\n\n    \n\n}",
  "sourcePath": "/home/vikas/Office/Tuurnt/contracts/VestingStrategy.sol",
  "compiler": {
    "name": "solc",
    "version": "0.4.19+commit.c4cbbb05.Emscripten.clang"
  },
  "schemaVersion": "2.0.0",
  "updatedAt": "2018-03-09T08:32:15.676Z"
}