{
  "contractName": "VestingStrategy",
  "abi": [
    {
      "constant": true,
      "inputs": [],
      "name": "finalSlotTimestamp",
      "outputs": [
        {
          "name": "",
          "type": "uint256"
        }
      ],
      "payable": false,
      "stateMutability": "view",
      "type": "function"
    },
    {
      "constant": true,
      "inputs": [],
      "name": "teamAddress",
      "outputs": [
        {
          "name": "",
          "type": "address"
        }
      ],
      "payable": false,
      "stateMutability": "view",
      "type": "function"
    },
    {
      "constant": true,
      "inputs": [],
      "name": "tokenReleased",
      "outputs": [
        {
          "name": "",
          "type": "uint256"
        }
      ],
      "payable": false,
      "stateMutability": "view",
      "type": "function"
    },
    {
      "constant": true,
      "inputs": [],
      "name": "slotAmount",
      "outputs": [
        {
          "name": "",
          "type": "uint256"
        }
      ],
      "payable": false,
      "stateMutability": "view",
      "type": "function"
    },
    {
      "constant": true,
      "inputs": [],
      "name": "vestingPeriod",
      "outputs": [
        {
          "name": "",
          "type": "uint256"
        }
      ],
      "payable": false,
      "stateMutability": "view",
      "type": "function"
    },
    {
      "constant": true,
      "inputs": [],
      "name": "owner",
      "outputs": [
        {
          "name": "",
          "type": "address"
        }
      ],
      "payable": false,
      "stateMutability": "view",
      "type": "function"
    },
    {
      "constant": true,
      "inputs": [],
      "name": "tokenAddress",
      "outputs": [
        {
          "name": "",
          "type": "address"
        }
      ],
      "payable": false,
      "stateMutability": "view",
      "type": "function"
    },
    {
      "constant": true,
      "inputs": [],
      "name": "firstSlotTimestamp",
      "outputs": [
        {
          "name": "",
          "type": "uint256"
        }
      ],
      "payable": false,
      "stateMutability": "view",
      "type": "function"
    },
    {
      "constant": true,
      "inputs": [],
      "name": "thirdSlotTimestamp",
      "outputs": [
        {
          "name": "",
          "type": "uint256"
        }
      ],
      "payable": false,
      "stateMutability": "view",
      "type": "function"
    },
    {
      "constant": true,
      "inputs": [],
      "name": "secondSlotTimestamp",
      "outputs": [
        {
          "name": "",
          "type": "uint256"
        }
      ],
      "payable": false,
      "stateMutability": "view",
      "type": "function"
    },
    {
      "constant": false,
      "inputs": [
        {
          "name": "newOwner",
          "type": "address"
        }
      ],
      "name": "transferOwnership",
      "outputs": [],
      "payable": false,
      "stateMutability": "nonpayable",
      "type": "function"
    },
    {
      "inputs": [
        {
          "name": "_teamAddress",
          "type": "address"
        }
      ],
      "payable": false,
      "stateMutability": "nonpayable",
      "type": "constructor"
    },
    {
      "anonymous": false,
      "inputs": [
        {
          "indexed": true,
          "name": "previousOwner",
          "type": "address"
        },
        {
          "indexed": true,
          "name": "newOwner",
          "type": "address"
        }
      ],
      "name": "OwnershipTransferred",
      "type": "event"
    },
    {
      "constant": false,
      "inputs": [
        {
          "name": "_tokenAddress",
          "type": "address"
        }
      ],
      "name": "setTokenAddress",
      "outputs": [
        {
          "name": "",
          "type": "bool"
        }
      ],
      "payable": false,
      "stateMutability": "nonpayable",
      "type": "function"
    },
    {
      "constant": false,
      "inputs": [],
      "name": "releaseTokenToTeam",
      "outputs": [
        {
          "name": "",
          "type": "bool"
        }
      ],
      "payable": false,
      "stateMutability": "nonpayable",
      "type": "function"
    }
  ],
  "bytecode": "0x606060405260006009556a221f06fb12854a31400000600a55341561002357600080fd5b604051602080610ac48339810160405280805160008054600160a060020a03191633600160a060020a039081169190911790915590925082161515905061006957600080fd5b60028054600160a060020a031916600160a060020a0392909216919091179055426301e1338081016004556303c2670081016005556305a39a808101600655630784ce000160078190556008556109ff806100c56000396000f3006060604052600436106100ab5763ffffffff60e060020a6000350416631115e5d381146100b05780631c75f085146100d557806326a4e8d2146101045780634a76564e146101375780634ca0ad2e1461014a5780636557d5771461015d5780637313ee5a146101705780638da5cb5b146101835780639d76ea5814610196578063a55cc49b146101a9578063a97760a7146101bc578063d306df33146101cf578063f2fde38b146101e2575b600080fd5b34156100bb57600080fd5b6100c3610203565b60405190815260200160405180910390f35b34156100e057600080fd5b6100e8610209565b604051600160a060020a03909116815260200160405180910390f35b341561010f57600080fd5b610123600160a060020a0360043516610218565b604051901515815260200160405180910390f35b341561014257600080fd5b6100c3610285565b341561015557600080fd5b61012361028b565b341561016857600080fd5b6100c36108cf565b341561017b57600080fd5b6100c36108d5565b341561018e57600080fd5b6100e86108db565b34156101a157600080fd5b6100e86108ea565b34156101b457600080fd5b6100c36108f9565b34156101c757600080fd5b6100c36108ff565b34156101da57600080fd5b6100c3610905565b34156101ed57600080fd5b610201600160a060020a036004351661090b565b005b60075481565b600254600160a060020a031681565b6000805433600160a060020a0390811691161461023457600080fd5b600354600160a060020a03161561024a57600080fd5b5060018054600160a060020a03831673ffffffffffffffffffffffffffffffffffffffff199182168117835560038054909216179055919050565b60095481565b6000805433600160a060020a039081169116146102a757600080fd5b600354600160a060020a031615156102be57600080fd5b60075442106105da57600954151561038257600154600254600a54600160a060020a039283169263a9059cbb92169060040260006040516020015260405160e060020a63ffffffff8516028152600160a060020a0390921660048301526024820152604401602060405180830381600087803b151561033c57600080fd5b6102c65a03f1151561034d57600080fd5b50505060405180519050151561036257600080fd5b600a5460095461037a9160040263ffffffff6109a616565b6009556105d5565b600a546009546103979163ffffffff6109bc16565b6001141561044957600154600254600a54600160a060020a039283169263a9059cbb92169060030260006040516020015260405160e060020a63ffffffff8516028152600160a060020a0390921660048301526024820152604401602060405180830381600087803b151561040b57600080fd5b6102c65a03f1151561041c57600080fd5b50505060405180519050151561043157600080fd5b600a5460095461037a9160030263ffffffff6109a616565b600a5460095461045e9163ffffffff6109bc16565b600214156105105760015460028054600a54600160a060020a039384169363a9059cbb939216910260006040516020015260405160e060020a63ffffffff8516028152600160a060020a0390921660048301526024820152604401602060405180830381600087803b15156104d257600080fd5b6102c65a03f115156104e357600080fd5b5050506040518051905015156104f857600080fd5b600a5460095461037a9160020263ffffffff6109a616565b600a546009546105259163ffffffff6109bc16565b600314156105d557600154600254600a54600160a060020a039283169263a9059cbb92169060006040516020015260405160e060020a63ffffffff8516028152600160a060020a0390921660048301526024820152604401602060405180830381600087803b151561059657600080fd5b6102c65a03f115156105a757600080fd5b5050506040518051905015156105bc57600080fd5b600a546009546105d19163ffffffff6109a616565b6009555b6108c8565b600654421061076757600954151561065857600154600254600a54600160a060020a039283169263a9059cbb92169060030260006040516020015260405160e060020a63ffffffff8516028152600160a060020a0390921660048301526024820152604401602060405180830381600087803b151561040b57600080fd5b600a5460095461066d9163ffffffff6109bc16565b600114156106e15760015460028054600a54600160a060020a039384169363a9059cbb939216910260006040516020015260405160e060020a63ffffffff8516028152600160a060020a0390921660048301526024820152604401602060405180830381600087803b15156104d257600080fd5b600a546009546106f69163ffffffff6109bc16565b600214156105d557600154600254600a54600160a060020a039283169263a9059cbb92169060006040516020015260405160e060020a63ffffffff8516028152600160a060020a0390921660048301526024820152604401602060405180830381600087803b151561059657600080fd5b600554421061084e5760095415156107e55760015460028054600a54600160a060020a039384169363a9059cbb939216910260006040516020015260405160e060020a63ffffffff8516028152600160a060020a0390921660048301526024820152604401602060405180830381600087803b15156104d257600080fd5b600154600254600a54600160a060020a039283169263a9059cbb92169060006040516020015260405160e060020a63ffffffff8516028152600160a060020a0390921660048301526024820152604401602060405180830381600087803b151561059657600080fd5b60045442106108c057600154600254600a54600160a060020a039283169263a9059cbb92169060006040516020015260405160e060020a63ffffffff8516028152600160a060020a0390921660048301526024820152604401602060405180830381600087803b151561059657600080fd5b5060006108cc565b5060015b90565b600a5481565b60085481565b600054600160a060020a031681565b600354600160a060020a031681565b60045481565b60065481565b60055481565b60005433600160a060020a0390811691161461092657600080fd5b600160a060020a038116151561093b57600080fd5b600054600160a060020a0380831691167f8be0079c531659141344cd1fd0a4f28419497f9722a3daafe3b4186f6b6457e060405160405180910390a36000805473ffffffffffffffffffffffffffffffffffffffff1916600160a060020a0392909216919091179055565b6000828201838110156109b557fe5b9392505050565b60008082848115156109ca57fe5b049493505050505600a165627a7a72305820852fd4aa4bf0e705c2e9a132a972088458ab5be0212ff1d8edb9617cbe53af2d0029",
  "source": "pragma solidity ^0.4.18;\n\n/**\n* @title VestingStrategy \n* @dev The Vesting contract holds the token for the team and provides the function \n* that release the token to token.\n*/\n\nimport 'zeppelin-solidity/contracts/math/Math.sol';\nimport './TuurntToken.sol';\nimport 'zeppelin-solidity/contracts/ownership/Ownable.sol';\n\ncontract VestingStrategy is Ownable {\n\n    using SafeMath for uint256;\n\n    TuurntToken token;\n    \n    //address\n    address public teamAddress;\n    address public tokenAddress;\n\n    //timeslot timestamp\n    uint256 public firstSlotTimestamp;\n    uint256 public secondSlotTimestamp;\n    uint256 public thirdSlotTimestamp;\n    uint256 public finalSlotTimestamp;\n    uint256 public vestingPeriod;\n    uint256 public tokenReleased = 0;\n    uint256 public slotAmount = 41250000 * 10 ** 18; //25% of total team token\n\n    /**\n    * @dev The VestingStrategy constructor set the orginal teamAddress and set the \n    * slot timestamp\n    * @param _teamAddress The address of team address\n    */\n    function VestingStrategy(address _teamAddress) public {\n        require(_teamAddress != address(0));\n        teamAddress = _teamAddress;\n        firstSlotTimestamp = now + 1 * 365 days;\n        secondSlotTimestamp = firstSlotTimestamp + 1 * 365 days;\n        thirdSlotTimestamp = secondSlotTimestamp + 1 * 365 days;\n        finalSlotTimestamp = thirdSlotTimestamp + 1 * 365 days; \n        vestingPeriod = now + 4 * 365 days;   // 3 months for crowdsale end + 4 years of vesting\n    }\n\n    /**\n    * @dev Allows the founder to set the token address \n    * @param _tokenAddress The token contract address   \n    */\n    function setTokenAddress(address _tokenAddress) onlyOwner public returns (bool) {\n        require(tokenAddress == address(0));\n        token = TuurntToken(_tokenAddress);\n        tokenAddress = _tokenAddress;\n        return true;\n    }\n\n    /**\n    * @dev Allows the founder to release token to the team at some timeslots\n    */\n    function releaseTokenToTeam() onlyOwner public returns(bool) {\n        require(tokenAddress != address(0));\n        if (now >= finalSlotTimestamp) {\n            if (tokenReleased == 0) {\n                require(token.transfer(teamAddress, 4*slotAmount));\n                tokenReleased = tokenReleased.add(4*slotAmount);\n            } else if ((tokenReleased).div(slotAmount) == 1) {\n                require(token.transfer(teamAddress, 3*slotAmount));\n                tokenReleased = tokenReleased.add(3*slotAmount);\n            } else if ((tokenReleased).div(slotAmount) == 2) {\n                require(token.transfer(teamAddress, 2*slotAmount));\n                tokenReleased = tokenReleased.add(2*slotAmount);\n            } else if ((tokenReleased).div(slotAmount) == 3) {\n                require(token.transfer(teamAddress, slotAmount));\n                tokenReleased = tokenReleased.add(slotAmount);\n            } \n        }else if (now >= thirdSlotTimestamp) {\n            if (tokenReleased == 0) {\n                require(token.transfer(teamAddress, 3*slotAmount));\n                tokenReleased = tokenReleased.add(3*slotAmount);\n            } else if ((tokenReleased).div(slotAmount) == 1) {\n                require(token.transfer(teamAddress, 2*slotAmount));\n                tokenReleased = tokenReleased.add(2*slotAmount);\n            } else if ((tokenReleased).div(slotAmount) == 2) {\n                require(token.transfer(teamAddress, slotAmount));\n                tokenReleased = tokenReleased.add(slotAmount);\n            }                \n        }else if (now >= secondSlotTimestamp) {\n            if (tokenReleased == 0) {\n                require(token.transfer(teamAddress, 2*slotAmount));\n                tokenReleased = tokenReleased.add(2*slotAmount);\n            } else {\n                require(token.transfer(teamAddress, slotAmount));\n                tokenReleased = tokenReleased.add(slotAmount);\n            }                 \n        }else if (now >= firstSlotTimestamp) {\n            require(token.transfer(teamAddress, slotAmount));\n            tokenReleased = tokenReleased.add(slotAmount);\n        } else {\n            return false;\n        }\n        return true;\n    }\n\n    \n\n}",
  "sourcePath": "/home/vikas/Office/Tuurnt/contracts/VestingStrategy.sol",
  "compiler": {
    "name": "solc",
    "version": "0.4.19+commit.c4cbbb05.Emscripten.clang"
  },
  "schemaVersion": "2.0.0",
  "updatedAt": "2018-03-11T04:48:46.519Z"
}